:02000002B0004C
:1040000000400B005C6A0B00000006000C0005027B
:084010000401A50F00000000EF
:04401800E0650B0054
:10401C0009480A49884208B505D0094A824202D0AB
:10402C00121A02F0E4F90748074A0021121A02F0AA
:10403C0006FA014808BD00BFA4DF0320B8690B00D5
:10404C0020E0032020E00320EDE7032070B5074EAD
:10405C00074C02F093F8A41BA4080025AC4200D135
:10406C0070BD56F8043B98470135F7E764690B00BF
:10407C0088690B0000F028B808B500F075F8BDE8A9
:10408C00084002F033B801F053B801F051B801F018
:10409C0057B80078B0FA80F04009704701230370DC
:1040AC00704770B50C1E064615460BDA0A2A09D164
:1040BC002D2101F089FD6142EAB23046BDE8704025
:1040CC0001F0A1BD2146F7E71FB501F045FF4FF404
:1040DC00E13101F035FF1C4B0121188802F0BEF8CC
:1040EC001A4B0121188802F0B9F8194B01211888D4
:1040FC0002F0B4F8174B0121188802F0AFF802F067
:10410C00F3F8154A01465723144800F0E1FA28B990
:10411C0001F022FF124901F074FDFEE701F01CFFD3
:10412C00104901F06EFD40F29B134FF48052CDE923
:10413C000132642300930948022304223C2100F03D
:10414C0087FB05B05DF804FBACDF0320A8DF032080
:10415C00A4DF0320B0DF0320801A0600C0E1032097
:10416C00F4650B0027660B002DE9F04FAC48AD4F02
:10417C00AD4C95B000F094FA4CF24F33984237D8CE
:10418C00AA4D3888DFF898A2DFF8F0820021296068
:10419C0002F075F8A64B0021188802F070F801F0B7
:1041AC00DBFEA44901F023FD4FF001092E68E6B9AE
:1041BC000121208802F063F8C82000F0F1FF31469D
:1041CC00208802F05CF8C82000F0EAFF504600F0AE
:1041DC0067FA4CF24F339842E8D9C5F8009001F0D9
:1041EC00BBFE414601F003FDE0E7934B00221A7041
:1041FC00924E3888DFF8409264230121336002F03C
:10420C003EF82088002102F03AF899F80040002C82
:10421C0064D1DFF86C82824DB8F80000DFF834B25C
:10422C00DFF834A2012102F02AF801F095FE84494E
:10423C0001F0DDFC3368E7B29F4216DA284600F045
:10424C002CF918B9284600F06AF9F7E7284600F06F
:10425C001BFA4BF82700284600F022FA4AF82700F0
:10426C00284600F027F90134E4E70123B8F80000F0
:10427C0089F80030002102F002F8724B0293724C64
:10428C00724D734B009301952346724A3168724804
:10429C0000F03CFC01F060FE704901F098FC01F06C
:1042AC005BFE0A222968FFF7FCFE01F055FE6C4903
:1042BC0001F08DFC01F050FE6A4901F088FC01F020
:1042CC004BFE0A222168FFF7ECFE01F045FE664921
:1042DC0001F07DFC01F040FE01F07DFC544B504D93
:1042EC001888DFF870815C4F012101F0C8FF5F492D
:1042FC004FF49672A1F1640002F087F85C494FF418
:10430C009672A1F1640002F080F84B24284600F06C
:10431C00C4F818B9284600F002F9F7E7284600F06F
:10432C00B3F948F82400284600F0BAF947F82400FD
:10433C002846013400F0BEF8642CE7D1414B424CC6
:10434C00424D0293424B009301952346414A3168FA
:10435C00414800F0DBFB01F0FFFD404901F037FC68
:10436C0001F0FAFD0A222968FFF79BFE01F0F4FD2B
:10437C003B4901F02CFC01F0EFFD3A4901F027FC20
:10438C0001F0EAFD0A222168FFF78BFE01F0E4FD43
:10439C00354901F01CFC01F0DFFD01F01CFC296823
:1043AC000A2204A801F0D5FC0A22216808A801F011
:1043BC00D0FC04A910A801F0AFFC08A910A801F0CA
:1043CC00F2FC01460CA801F0A7FC10A801F04AFC75
:1043DC00284B0C9A1B788DF8003027493C2310A8E9
:1043EC0001F060F8119C7CB16368013B63605BB9C0
:1043FC00236820469B689847A368013BA3601BB9C0
:10440C0023682046DB6898470CA801F02BFC08A811
:10441C0001F028FC04A801F025FC15B0BDE8F08FD4
:10442C00C0E10320A8DF0320ACDF032028E0032039
:10443C00A4DF03205A660B00FCE1032024E00320D8
:10444C0086660B0094E3032090E303202CE003200A
:10445C0095E3032000E2032030E003208A660B0082
:10446C008F660B0094660B009D660B0064E20320C4
:10447C0094E0032020E003209F660B0066660B008F
:10448C00B0DF0320024B034801221A7000F004B87D
:10449C0020E00320C0E10320704790F8383090F8FA
:1044AC003900181AC3B240B20028BCBF181D40B264
:1044BC00C0B2704708B50246FFF7EFFF30B192F873
:1044CC003930013303F0030382F8393008BD70B57D
:1044DC000446006816460D4601F00EFA2068036883
:1044EC0031469B6898470021206801F00CFA20683F
:1044FC000122294601F0FDF9206803681B699847E1
:10450C0020B1206803685B699847C0B270BD01791F
:10451C000422FFF7DCBF01790622FFF7D8BF2DE993
:10452C00F7430446FFF7F7FF05462046FFF7EFFF7A
:10453C00854200F08E80451B4FF05701206866794C
:10454C0048BF203501F0DCF92068036807219B681F
:10455C009847206801F0DBF96E4306EB46064FF0F6
:10456C0020084FF00009002E74DD202EC8BF6279A0
:10457C002068C9BF02EB42023746B8FBF2F757433B
:10458C003A465721F61B01F0B4F9002FEBDD94F8F5
:10459C00383020688DF80790013303F0030384F85A
:1045AC00383003685B6998478DF80600206803680B
:1045BC005B6998478DF80500206803685B6998472C
:1045CC0094F838308DF80400019A0233C2F31102CA
:1045DC0044F823206379012B19D9206803685B699F
:1045EC0098478DF80600206803685B6998478DF83A
:1045FC000500206803685B69984794F838308DF89B
:10460C000400019A0633C2F3110244F823206379A3
:10461C00022B19D9206803685B6998478DF806004E
:10462C00206803685B6998478DF80500206803686B
:10463C005B69984794F838308DF80400019A0A3376
:10464C00C2F3110244F823206379A3EB83031F44C4
:10465C009BE70025A8B203B0BDE8F08370B5054612
:10466C000E4600F099FB044600F096FB001BB0428E
:10467C0008D82846FFF753FF012804D0012000F08A
:10468C008FFDF1E7002070BD10B5FA210446FFF74D
:10469C00E5FF20B194F83830023354F8230010BDF4
:1046AC0010B5FA210446FFF7D9FF20B194F8383041
:1046BC00063354F8230010BD0179FF22FFF707BF22
:1046CC0010B5FE2201790446FFF701FFA07110BD61
:1046DC0037B50446084621601D46019201F0DAF810
:1046EC000199206801F0D2F825712046FFF7E4FF0C
:1046FC00152805D12046FFF7E3FF012003B030BD9C
:10470C000020FBE770B50446006816461D4601F014
:10471C00F3F82068036831469B6898472068036863
:10472C0029469B6898472068BDE8704001F0EFB8B7
:10473C000B460C220179FFF7E5BF0B460D220179E0
:10474C00FFF7E0BF0B460E220179FFF7DBBF0B46EC
:10475C0010220179FFF7D6BF10B50446017900236A
:10476C000422FFF7CFFF2179204600230522FFF713
:10477C00C9FF217920460023BDE810400622FFF72F
:10478C00C1BF2DE9F0410D4617460A460179044692
:10479C001E46FFF79CFE384046EA000321792A4664
:1047AC002046BDE8F041FFF7ADBF38B5BF2240232E
:1047BC0009210446FFF7E5FF00F0EEFA054600F08C
:1047CC00EBFA401B63280AD8217909222046FFF70F
:1047DC007EFE430603D5012000F0E2FCEFE738BD76
:1047EC000B46F8220921FFF7CCBF0B469F220A216A
:1047FC00FFF7C7BF0B46E3220A21FFF7C2BF0B46E8
:10480C00FC220A21FFF7BDBF01391346032914D836
:10481C00DFE801F002060B0EF8221121FFF7B1BF01
:10482C001B0103F0F0038F22F7E7F8221221F5E7C2
:10483C001B0103F0F0038F22F8E770470B461F2291
:10484C000821FFF79EBF1023EF220821FFF799BF25
:10485C002DE9F0471546DDE90879DDF828A0044676
:10486C0088461E46FFF7A1FF012D49D100212046A5
:10487C00FFF7E4FF2046FFF7E6FF032E54D1072194
:10488C002046FFF7ADFFBAF5805F667151DA002163
:10489C002046FFF7AAFF632F58DC00212046FFF7C4
:1048AC00A9FFB9F1750F71DC00212046FFF7A7FFB6
:1048BC0041462046FFF73CFF41462046FFF73DFFAF
:1048CC0041462046FFF73EFF41462046FFF73FFF9B
:1048DC00012211462046FFF797FF012E0BD9022229
:1048EC0011462046FFF790FF022E04D003221146FA
:1048FC002046FFF789FF2046BDE8F047FFF72CBFA5
:10490C00022D01D12021B2E7042D01D14021AEE7C7
:10491C00082D01D16021AAE7102D01D18021A6E735
:10492C00202DF3D1A021A2E7022E0CBF03210221DE
:10493C00A6E7BAF5005F01DA2021A9E7BAF5804FA6
:10494C0001DA4021A4E7A2D16021A1E7C72F01DC45
:10495C000421A3E7B7F5C87F01DA08219EE7B7F574
:10496C00487F01DA0C2199E7B7F57A7F01DA10213B
:10497C0094E7B7F5C86F01DA14218FE7B7F5486FE4
:10498C0001DA18218AE788D11C2187E7B9F1D60F03
:10499C0001DC012189E7B9F5CD7F01DC022184E737
:1049AC0040F29B1399457FF47FAF03217DE72DE9FE
:1049BC00F04100240C6003F1FF380124A04527DDF1
:1049CC00069D52F824C0AC454FEA840604F101055B
:1049DC001CDD164456F8046CB44517DD2E469E4279
:1049EC0052F82670A6EB040E354603D0BC4506F1F2
:1049FC000106F4D0BC4509DD0E680E2E06DC751CD4
:104A0C000D600EF1010540F8264025442C46D5E7F3
:104A1C00BDE8F081F0B5012304468B420FDA54F85F
:104A2C00046F1A46254655F8047CB74203DD013A5B
:104A3C0045F80479F7D140F822600133EDE7F0BD79
:104A4C002DE9F043012390460D46434516DA55F8FF
:104A5C00046F1C4600EB8609AC46D9F800205CF8C4
:104A6C00047C964650F82720964503DD013C4CF813
:104A7C000479F2D141F824600133E6E7BDE8F08314
:104A8C002DE9F04104461F4610460D460A682146A2
:104A9C00FFF7D6FF4FF0FF32C7F1000E29689142A5
:104AAC001DDD531C1E462B60B14216D0501C18BF86
:104ABC0054F8220054F826C008BF1046ACEB000096
:104ACC00B84201DC864506DD286800F10108C5F80E
:104ADC00008044F820C00136E6E71A46DEE720469F
:104AEC00BDE8F041FFF796BF37B5069D0095FFF77F
:104AFC005EFF0C46079BFFF7C3FF2268089B9A4298
:104B0C00D4BF2260236003B030BD00002DE9F04F0C
:104B1C009DB0DDE92798164600229B4605460C46BB
:104B2C001346A24204DA55F8221001320B44F8E77E
:104B3C008D4FB3FBF4F338460022A24206DA55F847
:104B4C002210591A40F8041B0132F6E7864A00215C
:104B5C00136852F8040F03445068034490681B1800
:104B6C0048BF033301319B10602942F8043CEFD15C
:104B7C0000237D4A9A4652F8041B0AF1010ABAF145
:104B8C00640F0B44F7D140F6B73293424FDD93FBE1
:104B9C00FAFABAF13C0FA8BF4FF03C0A3C220021B4
:104BAC000DA801F04CFC04230F22CDE90132CDF805
:104BBC0000A06D4A642307A90DA8FFF795FF079B7A
:104BCC00012B4FF0000235DD0DA94FF0010C08460A
:104BDC00D1F804E000680CF1010CAEEB0000634569
:104BEC0001F104010244F2D1591E92FBF1F240F2A0
:104BFC00DC5191FBF2F2C9F8002001225B4988F8E4
:104C0C0000200022A24219DB0022CDE90822CDE9C6
:104C1C000A220DAE0C92314693421BDD51F8040B67
:104C2C00642815DD524BCBF80030002392E04FF096
:104C3C001E0AB3E74E49C9F80010DFE755F8220009
:104C4C0047F8040B56F8220041F8040B0132D9E75F
:104C5C000132E1E70024013B434FDFF810C104941B
:104C6C00254621460593DDE90423934256DDD6F80B
:104C7C00048056F8040B1346A8EB00090133B9F174
:104C8C00030F0493EFDD4FF07F4E0346F246984539
:104C9C000EDD57F823207245C8BF96465CF82320DA
:104CAC00C8BF1C465245C4BF1D4692460133EEE7B1
:104CBC0057F8202057F828309B1A221A534357F8DC
:104CCC00202093FBF9F3134457F82520D21A0AFB42
:104CDC0002F24FEAE21ABAF1000FC4DD0429C2DC79
:104CEC005CF820305CF82820281AD21A504390FB2C
:104CFC00F9F018445CF825301B1A0EFB03FE5FEA32
:104D0C00EE1EB0D01CAB03EB8108642303FB0EF248
:104D1C00013192FBFAF248F8502CA4E708A8FFF7EF
:104D2C0079FE4A1003294FEA820318DD1CA901EB16
:104D3C00820151F8543C51F8502C134403EBD373BB
:104D4C005B10DA1EB42A3FF66DAF0A4AD35CCBF87F
:104D5C0000300123269A13701DB0BDE8F08F1CAAF9
:104D6C00134453F8503CECE798E3032028E5032068
:104D7C0019FCFFFFA9660B0008B5024B1B685B6CA6
:104D8C00019308BD4802030008B5024B1B685B6821
:104D9C00019308BD1802030008B5024B1B685B6940
:104DAC00019308BD1802030008B5024B1B689B68F1
:104DBC00019308BD2C02030008B5024B1B68DB688D
:104DCC00019308BD2C02030008B5024B1B681B693C
:104DDC00019308BD2C02030008B5024B1B681B682D
:104DEC00019308BD2802030008B5024B1B68DB6861
:104DFC00019308BD2802030008B5024B1B689B6990
:104E0C00019308BD2802030008B5024B1B68DB693F
:104E1C00019308BD2802030008B5024B1B681B6AEE
:104E2C00019308BD2802030008B5024B1B685B6A9E
:104E3C00019308BD2802030008B5024B1B689B6A4E
:104E4C00019308BD2802030008B5024B1B68DB6AFE
:104E5C00019308BD2802030008B5024B1B681B6BAD
:104E6C00019308BD2802030008B5024B1B685B6B5D
:104E7C00019308BD2802030008B5024B1B681B6C8C
:104E8C00019308BD2802030008B5024B1B681B6D7B
:104E9C00019308BD2802030008B5024B1B685B692F
:104EAC00019308BD6402030008B5024B1B689B68A4
:104EBC00019308BD6802030008B5024B1B68DB6850
:104ECC00019308BD6802030008B5024B1B68DB693F
:104EDC00019308BD3002030008B5024B1B681B6A26
:104EEC00019308BD3002030008B5024B1B68DB6858
:104EFC00019308BD3C02030008B5024B1B681B69FB
:104F0C00019308BD3C02030008B5024B1B685B69AA
:104F1C00019308BD3C02030008B5024B1B689B695A
:104F2C00019308BD3C02030008B5024B1B68DB690A
:104F3C00019308BD3C02030008B5024B1B681B6AB9
:104F4C00019308BD3C02030008B5024B1B689B6A29
:104F5C00019308BD3C02030008B5024B1B681B6C97
:104F6C00019308BD3C02030008B5024B1B681B688B
:104F7C00019308BD4C02030008B5024B1B685B682B
:104F8C00019308BD4C02030008B5024B1B681B695A
:104F9C00019308BD4C02030008B5024B1B685B690A
:104FAC00019308BD4C02030008B5024B1B689B69BA
:104FBC00019308BD4C02030008B5024B1B68DB696A
:104FCC00019308BD4C02030008B5024B1B681B6A19
:104FDC00019308BD4C02030008B5024B1B685B68CB
:104FEC00019308BD2002030008B5024B1B685B69E6
:104FFC00019308BD2002030008B5024B1B68DB6C53
:10500C00019308BD2002030008B5024B1B685B6DC1
:10501C00019308BD2002030008B5034B1B68D3F8AD
:10502C008830019308BD00002002030008B5034B33
:10503C001B68D3F89430019308BD000020020300D4
:10504C0008B5024B1B685B69019308BD4402030061
:10505C0008B5024B1B681B6A019308BD4402030090
:10506C0008B5024B1B68DB6B019308BD44020300BF
:10507C0008B5024B1B685B68019308BD4002030036
:10508C0008B5024B1B689B68019308BD40020300E6
:10509C0008B5024B1B68DB68019308BD4002030096
:1050AC0008B5024B1B681B69019308BD4002030045
:1050BC0008B5024B1B685B69019308BD40020300F5
:1050CC0008B5024B1B689B69019308BD40020300A5
:1050DC0008B5024B1B68DB69019308BD4002030055
:1050EC0008B5024B1B681B6A019308BD4002030004
:1050FC0008B5024B1B681B6B019308BD40020300F3
:10510C0008B5024B1B685B6B019308BD40020300A2
:10511C0008B5024B1B681B6C019308BD40020300D1
:10512C0008B5024B1B685B6C019308BD4002030081
:10513C0008B5024B1B681B68019308BD1C020300D9
:10514C0008B5024B1B685B68019308BD1C02030089
:10515C0008B5024B1B689B68019308BD1C02030039
:10516C0008B5024B1B68DB6A019308BD1C020300E7
:10517C0008B5024B1B681B6B019308BD1C02030096
:10518C0008B5024B1B681B6C019308BD1C02030085
:10519C0008B5024B1B685B6C019308BD1C02030035
:1051AC000021FFF721BF10B5836804460BB901F04D
:1051BC0001F9C3689847A3681BB103222146204616
:1051CC00984720461021BDE81040FEF760BF10B58F
:1051DC008368044613B1032201469847204610BD4C
:1051EC0010B54368013B0446436063B903689B6890
:1051FC009847A368013BA3602BB923682046DB6862
:10520C00BDE81040184710BD10B50446006808B141
:10521C00FFF7E6FF204610BD13B50B460246D0E95A
:10522C0000016C4684E8030093E8030082E8030065
:10523C0094E8030083E8030002B010BD0248002389
:10524C000360FFF799BD00BFB8E60320704700204C
:10525C00704710B510210446FEF719FF204610BD0B
:10526C0008B5FFF7F6FF08BD30B500224FF69C7469
:10527C00026084808D888C800C68858004600A6054
:10528C0030BD10B504460068FFF75AFF204610BD2C
:10529C0038B5C468F4B12378022B03D104F10C00A7
:1052AC00FFF7EFFF656835B12846FFF790FF102137
:1052BC002846FEF7ECFEA56835B12846FFF787FFB8
:1052CC0010212846FEF7E3FE20461421BDE83840A5
:1052DC00FEF7DDBE38BD0B6803604B68436013B14D
:1052EC005A6801325A60704737B5044668460D4615
:1052FC00FFF7F1FF009B019A23606260002301A875
:10530C0001930093FFF780FF35B1281DFFF77CFF59
:10531C0008212846FEF7BBFE204603B030BD82684C
:10532C0010B50AB901F046F8BDE81040C36818473B
:10533C0008B5006800F11001FFF7F1FF08BD8268A5
:10534C0010B50AB901F036F8BDE81040C36818472B
:10535C0008B5006800F11001FFF7F1FF08BD00006F
:10536C0038B500230446036010200D46FEF78BFE73
:10537C0028B10123C0E90133024B0360C5602060F2
:10538C00204638BD6C670B0038B5002383608B68F2
:10539C0004460D462BB102229847EB68E360AB68DC
:1053AC00A360204638BD0000F0B589B0046868469B
:1053BC00FFF75AFF4FF00203D4E84F2F002A03D116
:1053CC00C4E8413F0029F7D125D104F10C05694609
:1053DC002846FFF749FFBFF35B8F01236370002062
:1053EC0004F10803BFF35B8F53E8006F43E800023E
:1053FC00002AF9D1BFF35B8F6EB1FFF7FDFD78B1D9
:10540C0029463046FFF78BFF3046FFF7E0FE1021B0
:10541C003046FEF73CFE6846FFF733FF09B0F0BD9F
:10542C00314602A8FFF7B0FFE068B4F9105008B19C
:10543C0001F044F806901020ADF81C50FEF723FE46
:10544C000546E8B1002787601820FEF71CFE0446CD
:10545C0088B10146876002A8FFF7DEFE049BA268B4
:10546C00A360059B049206A9E268E36004F11000B6
:10547C000592FFF7F9FE084BEB60084B2C60AB6014
:10548C0006A8FFF7FEFE02A8FFF7A1FE00222946A0
:10549C000348FFF7B9FDB7E73D530B00C1550B00AF
:1054AC00B3510B002DE9F04F8BB005469DF850A081
:1054BC000F4690469946FFF7C3FD07AE834638BBAF
:1054CC004FF62E73059005A93046ADF81830FFF74E
:1054DC00CBFE1420FEF7D7FD044648B1022303701F
:1054EC000123C0E901BB437031460C30FFF7BCFE11
:1054FC002846214640F8044BFFF732FF3046FFF7B1
:10550C00C0FE05A8FFF7BDFE28460BB0BDE8F08F26
:10551C000C2300241420CDE908440793FEF7B3FDB7
:10552C00014618B1C0E901440470447004A8039109
:10553C00FFF716FF1E4B08930820FEF7A4FD044648
:10554C0010B103A9FFF7C7FE00965FFA8AF34A462B
:10555C00414638460994FFF77BFDB8B9039B5B784D
:10556C0003F0FF0293B94FF69C7305A903A80592AB
:10557C00ADF81830FFF718FF05A8FFF782FE05A855
:10558C000999FFF7B1FE06A8FFF73EFE03A905A88F
:10559C00FFF7A1FE059B069A2B606A60002306A804
:1055AC0006930593FFF730FE04A8FFF72DFEABE73B
:1055BC003D560B00012AF8B5054603D10B68036074
:1055CC000020F8BD022A10D0032AF9D10468002C5F
:1055DC00F6D004F11000FFF754FE2046FFF7F7FD5C
:1055EC0018212046FEF753FDEAE718200E68FEF757
:1055FC004AFD044650B13146FFF7C6FE3069B6F994
:10560C00147008B100F05AFF2061A7822C60D7E714
:10561C0038B5002383608B6804460D462BB10222FB
:10562C009847EB68E360AB68A360204638BD000088
:10563C00F0B589B004460D4601A81146FFF754FE9B
:10564C00A4B124B21DB1284600F038FF054601A8CC
:10565C0003A90395ADF81040FFF7A6FE03A8FFF7CA
:10566C0010FE02A8FFF7D0FD09B0F0BD019D01238B
:10567C00D5E84F2F002A03D1C5E8413F0029F7D1C7
:10568C00EFD12B73BFF35B8F6B702B1DBFF35B8F55
:10569C0053E8006F43E80042002AF9D1BFF35B8F57
:1056AC00002EDED02046FFF7A7FC074660B105F1BF
:1056BC000C013046FFF743FE3046FFF788FD102102
:1056CC003046FEF7E4FCCCE7314603A8FFF7A0FF19
:1056DC002B7B8DF81C301020FEF7D5FC0546D0B185
:1056EC0087601420FEF7CFFC044678B18760014632
:1056FC0003A8FFF791FD059BA268A360069B05928A
:10570C00E268E3609DF81C3006922374064BEB6054
:10571C00064B2C60AB6003A8FFF759FD002229460D
:10572C000348FFF771FCC7E75D530B0041570B00B3
:10573C00B3510B00012A70B5044603D10B6803600A
:10574C00002070BD022A0CD0032AF9D10468002C69
:10575C00F6D02046FFF73BFD14212046FEF797FCC0
:10576C00EEE714200E68FEF78EFC054620B131469C
:10577C00FFF74EFF337C2B742560E1E70022406875
:10578C001146FFF7ADBC002240681146FFF7B8BCCC
:10579C0040680022FFF7ACBC4068002281F0010198
:1057AC00FFF796BC002340681A461946FFF788BCE1
:1057BC00002340681A461946FFF77ABC002240685D
:1057CC001146FFF76DBC002240681146FFF758BC2C
:1057DC00406800220221FFF75BBC002340681A4698
:1057EC00FFF746BC024B03225A60024A1A6070470C
:1057FC00BCE6032088670B007047F8B506461546D3
:10580C000C468F18BC4206D0336814F8011B9B68F9
:10581C0030469847F6E72846F8BD007C0022FFF793
:10582C00FBBA007C0021FFF7FFBA007C0021FFF7D8
:10583C0003BB007C0021FFF707BB007C0021FFF7B6
:10584C000BBB10B514210446FEF721FC204610BDFD
:10585C0038B5044615464FF47A730022C4E9012387
:10586C00094B2174084623602946FFF705FBBF301E
:10587C0008D16B69DB0705D56868FFF761FCE86840
:10588C00FFF75EFC204638BDC4670B00007C00228D
:10589C00FFF7A2BA0023007C1A461946FFF7A4BAF8
:1058AC007FB500221423CDE90122ADF804300B782A
:1058BC008DF808304B680393CB680493007C0B7A0B
:1058CC00059301A9FFF7E0FA07B05DF804FB1FB5DB
:1058DC00003B8DF800104FF06401039118BF0123B9
:1058EC00694601928DF80830FFF7DAFF05B05DF8D4
:1058FC0004FB0123FFF7EBBF007C0022FFF77CBA0F
:10590C00C9B2FFF7F9BF007C0022FFF77DBA012175
:10591C00FFF7F9BF704710B518210446FEF7B7FB27
:10592C00204610BDF0B5037D062B8DB00E4600F160
:10593C0004074FF0000412D000F1080515F8011D02
:10594C000A22304600F05FF9AF42044419D0002C13
:10595C00F4D02E21304600F037F90444EEE72F2323
:10596C006A4639460A208DF80040FFF795FA6846DA
:10597C0000F0C1FD33680246DB6869463046984743
:10598C00044620460DB0F0BD10B5054B044611225F
:10599C0040F8043B002100F052FD204610BD00BF32
:1059AC00EC670B000346074A10B543F8042B01F1D2
:1059BC00100251F8044B43F8044B9142F9D10A7888
:1059CC001A7010BDEC670B0010B59DF8084044EA46
:1059DC00032343EA024242EA016104234160037556
:1059EC0010BD000007B5064B0360CB7800938B7895
:1059FC004A780978FFF7E8FF03B05DF804FB00BFB5
:105A0C00EC670B00014B024A1A607047C4E6032096
:105A1C00F8670B00002340681A46FFF729BB406863
:105A2C0000220221FFF734BB002240681146FFF729
:105A3C0027BB002240681146FFF732BB00234068A9
:105A4C001A461946FFF734BB002340681A4619461C
:105A5C00FFF736BB40680021FFF75ABB40680021B6
:105A6C00FFF75EBB4068002281F00101FFF730BBFD
:105A7C0040680022FFF73CBB002240681146FFF74C
:105A8C003FBB002240681146FFF72ABB2DE9F043CB
:105A9C0095B014460D460746FFF776FF00211C22F1
:105AAC000DA8009100F0CBFC40230C9320466B46D4
:105ABC000CAA0021FFF700FA044600284BD102463D
:105ACC0001216868FFF7ECFA0221804622466868DB
:105ADC00FFF7E6FA009E81462146002E3BD00029B6
:105AEC0039D17368022B03D00A2B11D0F669F4E775
:105AFC00B8F1000FFAD0716906A8043107ADFFF7B1
:105B0C0071FF0FCD3C1D0FC42B6823704146EDE790
:105B1C00B9F1000FEAD07469102201A800F08FFCD3
:105B2C0006238DF8143001AD04F1080318341868FD
:105B3C0059682A4603C20833A3421546F7D101A976
:105B4C0006A807ADFFF72EFF0FCD3C1D0FC42B6829
:105B5C0023704946CAE70098FFF7A6F9384615B0F6
:105B6C00BDE8F083024B034A1A6000225A6070476A
:105B7C00C8E6032004680B00F8B506460D468F18DE
:105B8C000024BD420CD0336815F8011B9B683046CD
:105B9C009847031E01DB1C44F3E7002C08BF1C468E
:105BAC002046F8BD13B50446084659B1019100F0E2
:105BBC00A2FC23680199DB680246204602B0BDE8CE
:105BCC001040184702B010BD03689B68184708B511
:105BDC00FFF7E8FF08BD38B50D210546FFF7F4FFC8
:105BEC000A2104462846FFF7EFFF204438BD38B59C
:105BFC000546FFF7D7FF04462846FFF7ECFF204485
:105C0C0038BDFFF7F4BF30B58BB00023012A8DF8F7
:105C1C00243098BF0A2209AC0D46B1FBF2F101FB0E
:105C2C00125303F0FF03092B94BF30333733DBB22D
:105C3C00AA4204F8013DEFD92146FFF7B3FF0BB0A0
:105C4C0030BD0000014B00229A607047D0E6032063
:105C5C0010B5044608462170FFF736F9002363603F
:105C6C00204610BD10B504460068FFF769FA2046BF
:105C7C0010BD10B50446006808B1FFF761FA0023A7
:105C8C00C4E90133236010BD38B504460D460068E5
:105C9C000131FFF75DFA10B1C4E90005012038BDF0
:105CAC0010B50368044623B143688B4201D301202D
:105CBC0010BD2046FFF7E8FF0028F9D0A368002BA1
:105CCC00F5D122681370F2E737B50D4611460192F3
:105CDC000446FFF7E5FF019A28B92046FFF7C9FFF4
:105CEC00204603B030BDA2602946206800F07FFB3F
:105CFC002268A3680021D154F2E7884210B504460B
:105D0C0005D00B682BB18A681946FFF7DDFF2046DA
:105D1C0010BDFFF7AEFFFAE710B500230446C0E94B
:105D2C00003383600373FFF7E8FF204610BD13B503
:105D3C00044659B10846019100F0DDFB0199024679
:105D4C002046FFF7C1FF204602B010BDFFF791FFC0
:105D5C00F9E710B504468AB00023C4E90033A36008
:105D6C002373084601A900F05BF901A92046FFF74F
:105D7C00DEFF20460AB010BD70B505460E4609B9C7
:105D8C00002070BD6AB1846814442146FFF788FF77
:105D9C000028F5D02868AB683146184400F086FB23
:105DAC00AC600120EDE710B58A6809680446FFF77E
:105DBC00E3FF10B92046FFF75CFF204610BD000042
:105DCC00054B02221A60054B054A9A600020C3E974
:105DDC000000FFF701B900BFECE60320E0E603206A
:105DEC000000FFFF024B1A68024B1A60704700BF9D
:105DFC00B4DF0320F0E6032070474174704708B508
:105E0C00007CFFF7A1F820EAE07008BD08B5007C23
:105E1C00FFF772F820EAE07008BD08B5007CFFF7C8
:105E2C007BF840EAE07008BD08B5007CFFF76CF821
:105E3C0040EAE07008BD007CFFF776B837B5457CCA
:105E4C0004462DB1207C03B0BDE83040FFF74CB8C0
:105E5C00007C0191FFF778F800280199F2DC2846C4
:105E6C0003B030BD10B514210446FEF710F92046DE
:105E7C0010BD000010B54FF47A7304460846114665
:105E8C000022C4E90123044B2360012320746374B2
:105E9C00FFF762F8204610BD5C680B004174704738
:105EAC007047704708B50021007CFFF77DF840EA89
:105EBC00E07008BD08B50121007CFFF775F840EAD9
:105ECC00E07008BD08B5007CFFF766F820EAE070CA
:105EDC0008BD08B5007CFFF757F820EAE07008BD54
:105EEC0013B50446007C0191FFF756F80028019980
:105EFC0001DC607C20B1207CFFF75EF820EAE070CA
:105F0C0002B010BD007CFFF75FB810B51421044639
:105F1C00FEF7BDF8204610BD10B54FF47A73044659
:105F2C0008460021C4E90113044B236001232074AB
:105F3C0063741146FFF718F8204610BD8C680B00EF
:105F4C00007C0022FFF718B810B51422044600217B
:105F5C0000F075FA204610BD10B50F4C88B003A8A0
:105F6C00FFF7F2FF2178BFF35B8F11F001010FD126
:105F7C0020460191FEF78DF8019948B103AA074814
:105F8C00FFF7CAFF2046FEF789F8054800F015FA1E
:105F9C00024808B010BD00BFF4E60320F8E6032069
:105FAC00AD5E0B00002240681146FFF779B8002265
:105FBC0040681146FFF794B8002240681146FFF77D
:105FCC009FB840680022FFF793B84068002281F028
:105FDC000101FFF77DB8002340681A461946FFF708
:105FEC006FB8002340681A461946FFF761B80022C3
:105FFC0040681146FFF744B8406800220221FFF7C1
:10600C0047B8002340681A46FFF732B8024B042207
:10601C005A60024A1A6070470CE70320BC680B00F8
:10602C002DE9F041931E8CB0222B4FF000030D464E
:10603C0014468DF82C3027D900282ADA2E462D2329
:10604C0006F8013B40420A240DF12B074FF00108E2
:10605C002246014601A800F0B6F9029B0198092BD3
:10606C00CCBF3722302252FA83F307F8013908F1FA
:10607C0001080028ECD14246791C304600F0B7F9F3
:10608C0028460CB0BDE8F0810A2AD5D018B12E46AE
:10609C00DAE70A24FAE730238DF82B302E460DF17F
:1060AC002A074FF00208E6E7014B1860704700BF63
:1060BC00B8DF032008B50B4B43B1FFF74DFF036866
:1060CC001B699847002801DDAFF30080064B43B1F4
:1060DC0000F04AF903681B699847002801DDAFF30B
:1060EC00008008BD000000000000000008B5FFF7AC
:1060FC00E1FFFEF751FE014B186008BD28E70320B5
:10610C000548064A064908B5121A00F070F9054B05
:10611C00054A1A6008BD00BF00F4032004F40320F4
:10612C00B4690B0000F403201E1C279A07B500234A
:10613C0000931A466FF07701FEF778FF03B05DF815
:10614C0004FB000007B543880A2B08D0502B0BD159
:10615C00094B1B684BB103B05DF804EB1847FFF714
:10616C00E5FF03B05DF804FB002300931A466FF0C3
:10617C007701FEF75BFFF4E718E7032010B5124830
:10618C000021FFF705F8114B1A68114B9A42114B7D
:10619C000CBF012200221A7001D0FFF7B1FFFEF7ED
:1061AC00F3FD044600F054F90B4B13B12046AFF34A
:1061BC00008000210848FEF753FFBDE81040074857
:1061CC000021FEF729BF00BFB5600B0000F40320CF
:1061DC001E1C279A14E703200000000051610B00DD
:1061EC00232813B502D9002002B010BDA0F10B0377
:1061FC00022B1AD8174C2178BFF35B8F11F00101D9
:10620C000BD120460191FDF744FF019928B11248AA
:10621C00FFF71EFD2046FDF741FF0F4B1878FEF7E8
:10622C005BFE0028DFD10120DEE7012809D800F051
:10623C005BF80021007CFEF717FE80F00100C0B275
:10624C00D2E709380128EED800F08EF8007CFEF772
:10625C0073FEF2E71CE7032020E70320232838B560
:10626C0004460D460AD8FF2908D0FFF7B9FF28B11C
:10627C0029462046BDE83840FEF796BD38BD38B5F6
:10628C0004460D46FEF798FDFF2810D0062804D8CA
:10629C004D2323FA00F0C30709D42046FFF7A0FFD3
:1062AC0028B129462046BDE83840FEF78DBD38BDE3
:1062BC007047000038B50A4B036001230446436164
:1062CC000849202000F074F8202560600549A5607D
:1062DC00284600F06DF8C4E90305204638BD00BF20
:1062EC0018000100F0680B0030B50E4D2978BFF393
:1062FC005B8F11F0010487B011D12846FDF7C9FE60
:10630C0068B16846FFF7D6FF6A4621460648FFF794
:10631C009FFA2846FDF7C2FE044800F04EF80248EA
:10632C0007B030BD2CE7032030E70320BD620B0023
:10633C007047000038B5044614252A46002100F0A9
:10634C007EF825804025074925812846258200F0C6
:10635C002FF804496060284600F02AF8E0602046D7
:10636C0038BD00BFF0680B0030B50E4D2978BFF377
:10637C005B8F11F0010487B011D12846FDF789FE1F
:10638C0068B101A8FFF7D6FF01AA21460648FFF71E
:10639C0071FD2846FDF782FE044800F00EF8024815
:1063AC0007B030BD44E7032048E703203D630B00F2
:1063BC00FDF76BBE08B5FEF7D3FE002301461A4667
:1063CC00184600F0A1B8002910B591FBF2F402FBBD
:1063DC00141306DB002B01DA01349B1AC0E90043CD
:1063EC0010BD002BC4BF04F1FF349B18F6E70A4420
:1063FC00914200F1FF3300D1704710B511F8014BF9
:10640C0003F8014F9142F9D110BD884210B501EB50
:10641C00020402D98442234607D8431EA14208D065
:10642C0011F8012B03F8012FF8E7024401468A42C8
:10643C0000D110BD13F8014D02F8014DF7E70244ED
:10644C000346934200D1704703F8011BF9E70000A3
:10645C0038B5104B1D68AB6B0446B3B91820FEF76A
:10646C0067FE0246A86320B90B4B0C484221FEF78D
:10647C0087FE0B490B4BC0E900130B4B83600B23BE
:10648C00838100210120C2E90401AB6B00221C6155
:10649C005A6138BDB8DF0320F1680B0008690B00A6
:1064AC000E33CDAB34126DE6ECDE0500034611F86D
:1064BC00012B03F8012B002AF9D17047024B01463E
:1064CC00186800F003B800BFB8DF032037B50446E6
:1064DC0008460D4600F00FF8421C1146204601926A
:1064EC00FEF746FE044618B1019A2946FFF77FFFD6
:1064FC00204603B030BD034613F8012B002AFBD114
:10650C00181A0138704700002DE9F843DFF8B880FD
:10651C000646D8F800001F460D46914600F056F886
:10652C00254B1C6834B9254C1C60254B13B11B68DA
:10653C00C4F8883063681F2B07DDD8F8000000F022
:10654C0047F84FF0FF30BDE8F8834EB3D4F888001D
:10655C0088B91C4B23B9D8F8000000F038F8F0E7E4
:10656C004FF48470FEF7E4FD0028F4D00023C0E95A
:10657C004033C4F88800636840F8239001229A40A5
:10658C0000EB8301D0F800311343C0F80031022E28
:10659C00C1F8807002BFD0F804311343C0F8043145
:1065AC006368D8F800005A1C0233626044F8235028
:1065BC0000F00EF80020C6E7E8E703205CE70320B4
:1065CC00000000003D510B001CE003207047704799
:1065DC00704700001D400B0059400B0081400B0020
:1065EC0085400B00000000004D41583330313035F0
:1065FC0020776173206E6F7420666F756E642E2029
:10660C00506C6561736520636865636B2077697294
:10661C00696E672F706F7765722E004174746163B9
:10662C00682073656E736F7220746F2066696E6775
:10663C006572207769746820727562626572206277
:10664C00616E6420746F20426567696E2100204E74
:10665C006F2066696E6765723F0046696E6765728A
:10666C00204465746563746564202D2D20496E6922
:10667C007469616C697A696E67002E2E2E0048521F
:10668C003D20002042504D002C2053504F323D20D5
:10669C0000250064617461456E747279005F5F5F00
:1066AC0060606061616161616262626262636363C6
:1066BC006363636363646464646464646464646493
:1066CC006464646464646464646363636363636385
:1066DC006362626262626261616161606060605F9C
:1066EC005F5F5E5E5E5D5D5D5C5C5C5B5B5A5A59D8
:1066FC005959585857575656555554545352525138
:10670C005150504F4E4E4D4C4C4B4A4A49484847BD
:10671C004645454443424241403F3E3E3D3C3B3A68
:10672C0039383837363534333231302F2E2D2C2B37
:10673C002A2928272625242322211F1E1D1C1B1A2B
:10674C0019171615141311100F0E0C0B0A09070646
:10675C000503020100000000000000000000000022
:10676C0059520B005F520B009D520B006D520B00E7
:10677C005B520B000000000000000000E7570B000C
:10678C00DD570B00D3570B00C9570B00BD570B003F
:10679C00B1570B00615A0B00695A0B00A5570B003F
:1067AC009D570B0093570B0089570B00995A0B0000
:1067BC00000000000000000005580B004F580B00B3
:1067CC0027580B0007580B002F580B0037580B009D
:1067DC003F580B0047580B00000000000000000061
:1067EC0031590B0021590B0023590B0061707000BB
:1067FC000000000000000000215A0B002B5A0B0077
:10680C00355A0B003F5A0B00495A0B00555A0B00D6
:10681C00615A0B00695A0B00715A0B007D5A0B0020
:10682C00855A0B008F5A0B00995A0B0025592D25B0
:10683C006D2D25645425483A254D3A2553257A006B
:10684C0061736374696D6500000000000000000056
:10685C00055E0B00715E0B00495E0B00855B0B0047
:10686C00195E0B00355E0B00275E0B00435E0B00C0
:10687C00075E0B000B5E0B00000000000000000028
:10688C00AF5E0B00175F0B00ED5E0B00855B0B0022
:10689C00DF5E0B00B15E0B00C15E0B00115F0B00E5
:1068AC00D15E0B00A95E0B00000000000000000090
:1068BC000F600B0005600B00FB5F0B00B15F0B0062
:1068CC00EF5F0B00E35F0B00615A0B00695A0B0082
:1068DC00D75F0B00CF5F0B00C55F0B00BB5F0B00DE
:1068EC00995A0B00005245454E54206D616C6C6FEB
:1068FC006320737563636565646564002F746D70E4
:10690C002F6A656E6B696E732D4743432D31302DA5
:10691C00706970656C696E652D34385F3230323059
:10692C00313132345F313630363138303633392FFD
:10693C007372632F6E65776C69622F6E65776C6905
:10694C00622F6C6962632F7374646C69622F72615D
:10695C006E642E630000000091440B0049520B0042
:10696C00F1570B00115A0B00715B0B00515C0B00C3
:10697C00CD5D0B00F15D0B0019600B0000000000F9
:04698C000000000007
:10699000040000001400000003000000474E5500F2
:1069A000400F595C2BAFD2474F2B89924B0D9B95D3
:0469B00027E4444153
:0469B40000000000DF
:1069B80005000000060000000200000013000000AF
:1069C8004C680B00BCDF0320000000000000000042
:1069D80000000000000000000000000000000000AF
:1069E800000000000000000000000000000000009F
:1069F800000000000000000000000000000000008F
:106A0800000000000000000000000000000000007E
:106A1800000000000000000000000000000000006E
:0C6A28000000000000000000ECE703206C
:106A3400FFFFFFFF00000102030405060708090A1F
:106A44000B0C0D0E0F101112131415161718191A1A
:086A54001B1C1D1E1F20280061
:046A5C007856341222
:04000003B000401CED
:00000001FF
