:02000004080AE8
:1000000000000A08881F0A08000006000600050113
:0800100004029A080000000040
:04001800081C0A08AE
:10001C0009480A4908B5884205D0094A824202D0EB
:10002C00121A01F041FD0748074A0021121A01F08B
:10003C0049FD064808BD00BF00000020E41E0A0868
:10004C007C0000207C000020810C0020810C002012
:10005C0070B501F02DFC0025054E064CA41BA40820
:10006C00A54200D170BD56F8043B98470135F7E71F
:10007C00B81E0A08D81E0A0800F028B808B500F007
:10008C0075F8BDE8084001F0CBBB00F0E7BF00F00D
:10009C00EDBF0078B0FA80F040097047012303707F
:1000AC007047F8B50C1E074616460CDA0A2A0AD118
:1000BC002D2101F071F9054661423846F2B201F08A
:1000CC008AF92844F8BD21460025F6E71FB501F052
:1000DC00B3FA4FF4E13101F095FA1C4B0121188869
:1000EC0001F062FC1A4B0121188801F05DFC194BE0
:1000FC000121188801F058FC174B0121188801F0D8
:10010C0053FC01F095FC57230146144A144800F0A7
:10011C0093FA28B901F090FA124901F05AF9FEE766
:10012C0001F08AFA104901F054F940F29B134FF494
:10013C008052CDE901326423042200933C21022336
:10014C00074800F038FB05B05DF804FB0800002000
:10015C0004000020000000200C000020801A060083
:10016C00180200201C1C0A084F1C0A082DE9F04F2D
:10017C008B4885B000F048FA4CF24F339842894FC7
:10018C00894E38D80025894C29463888256001F0DD
:10019C001CFC874B2946188801F017FC01F04CFA1F
:1001AC00844901F00CF94FF00109DFF8F4A1DFF8F4
:1001BC0040822568E5B90121308801F006FCC82091
:1001CC0000F064FF2946308801F0FFFBC82000F0E6
:1001DC005DFF504600F018FA4CF24F339842E8D9C4
:1001EC00C4F8009001F028FA414601F0E8F8E0E785
:1001FC000022714B1A706423704C012138882360E3
:10020C0001F0E3FB0021308801F0DFFB6A4B1D7825
:10021C009846002D62D16A4F0121388801F0D5FB38
:10022C0001F00AFA674901F0CAF85D4EDFF8A8B18F
:10023C00DFF8A8A123685FFA85F9994516DA3046EC
:10024C0000F0DFF818B9304600F01DF9F7E730463A
:10025C0000F0CEF94BF82900304600F0D5F94AF8F9
:10026C002900304600F0DAF80135E3E701230021DC
:10027C00388888F8003001F0A8FB534B534E02939A
:10028C00534B544D009301962B46534A21685348C7
:10029C0000F0F6FB01F0D0F9514901F080F801F0C3
:1002AC00CBF90A223168FFF7FCFE01F0C5F94D4984
:1002BC0001F075F801F0C0F94B4901F070F801F04C
:1002CC00BBF90A222968FFF7ECFE01F0B5F94749A2
:1002DC0001F065F801F0B0F901F065F8344B01213B
:1002EC00188801F072FB3C493C4A19238846174692
:1002FC00486E013341F8040BDBB2506E642B42F8AC
:10030C00040BF5D14B25264E304600F07AF818B97F
:10031C00304600F0B8F8F7E7304600F069F948F8D5
:10032C002500304600F070F947F8250030460135BD
:10033C0000F074F8642DE7D1234B244E0293244B28
:10034C00244D009301962B46234A2168234800F044
:10035C0097FB01F071F9224901F021F801F06CF9D9
:10036C000A223168FFF79DFE01F066F91D4901F084
:10037C0016F801F061F91C4901F011F801F05CF973
:10038C000A222968FFF78DFE01F056F9174901F092
:10039C0006F801F051F905B0BDE8F04F01F003B8D3
:1003AC00180200200400002008000020800000201B
:1003BC0000000020821C0A08540200207C0000204F
:1003CC000C000020AE1C0A08EC0300208400002066
:1003DC00ED030020E80300205802002088000020D4
:1003EC00B21C0A08B71C0A08BC1C0A08C51C0A085F
:1003FC008E1C0A08014800F003B800BF1802002048
:10040C00704790F8383090F83900181AC3B240B2DF
:10041C000028BCBF181D40B2C0B2704708B50246D8
:10042C00FFF7EFFF30B192F83930013303F00303DB
:10043C0082F8393008BD70B5044616460D46006882
:10044C0000F09CFE2068314603689B6898470021A9
:10045C00206800F09AFE01222946206800F08BFEED
:10046C00206803681B69984720B1206803685B69A2
:10047C009847C0B270BD04220179FFF7DCBF062299
:10048C000179FFF7D8BF2DE9F7430446FFF7F7FFD3
:10049C0006462046FFF7EFFF864200F08E80861B53
:1004AC004FF05701206848BF2036677900F06AFE8C
:1004BC002068072103684FF020089B689847206844
:1004CC0000F067FE4FF00009774307EB4707002F5A
:1004DC0074DD202FC9BF65793D4605EB4505B8FB9A
:1004EC00F5F2C8BF554357212A4620687F1B00F000
:1004FC0042FE002DEBDD94F838302068013303F018
:10050C00030384F8383003688DF807905B699847CB
:10051C008DF80600206803685B6998478DF8050024
:10052C00206803685B6998478DF8040094F83830AC
:10053C00019A0233C2F3110244F823206379012B90
:10054C0019D9206803685B6998478DF80600206804
:10055C0003685B6998478DF80500206803685B6940
:10056C0098478DF8040094F83830019A0633C2F39A
:10057C00110244F823206379022B19D920680368EF
:10058C005B6998478DF80600206803685B6998479B
:10059C008DF80500206803685B6998478DF80400A6
:1005AC0094F83830019A0A33C2F3110244F823202C
:1005BC006379A3EB83031D449BE70026B0B203B021
:1005CC00BDE8F08370B505460E4600F0A7FB044667
:1005DC0000F0A4FB001BB04208D82846FFF753FFDD
:1005EC00012804D0012000F051FDF1E7002070BD7E
:1005FC0010B5FA210446FFF7E5FF20B194F8383026
:10060C00023354F8230010BD10B5FA210446FFF74D
:10061C00D9FF20B194F83830063354F8230010BDBC
:10062C00FF220179FFF707BF10B5FE2201790446BE
:10063C00FFF701FFA07110BD70B5044616461D46AC
:10064C000846216000F068FD3146206800F060FD2E
:10065C0020462571FFF7E4FF152804D12046FFF74B
:10066C00E3FF012070BD0020FCE770B50446164680
:10067C001D46006800F082FD2068314603689B68C7
:10068C0098472068294603689B6898472068BDE80E
:10069C00704000F07EBD0B460C220179FFF7E5BFE0
:1006AC000B460D220179FFF7E0BF0B460E220179B4
:1006BC00FFF7DBBF0B4610220179FFF7D6BF10B551
:1006CC000446017900230422FFF7CFFF204621794D
:1006DC0000230522FFF7C9FF204621790023BDE83E
:1006EC0010400622FFF7C1BF2DE9F0410D46174619
:1006FC000A46017904461E46FFF79DFE00EA0703F1
:10070C002A46204621793343BDE8F041FFF7ADBFBF
:10071C0038B5BF22402309210446FFF7E5FF00F05E
:10072C00FDFA054600F0FAFA401B63280AD80922A4
:10073C0020462179FFF77FFE430603D5012000F008
:10074C00A5FCEFE738BD0B46F8220921FFF7CCBF1B
:10075C000B469F220A21FFF7C7BF0B46E3220A2153
:10076C00FFF7C2BF0B46FC220A21FFF7BDBF0B46A9
:10077C001F220821FFF7B8BF1023EF220821FFF733
:10078C00B3BF01391346032914D8DFE801F0020680
:10079C000B0EF8221121FFF7A7BF1B018F2203F0CC
:1007AC00F003F7E7F8221221F5E71B018F2203F083
:1007BC00F003F8E770472DE9F0471546DDE90879B5
:1007CC00044688461E46DDF828A0FFF7A1FF012D40
:1007DC004AD100212046FFF7CAFF2046FFF7CCFF85
:1007EC00032E55D107212046FFF7ADFFBAF5805FE8
:1007FC00667152DA00212046FFF7AAFF632F59DCFD
:10080C0000212046FFF7A9FFB9F1750F72DC00211A
:10081C002046FFF7A7FF41462046FFF73CFF414625
:10082C002046FFF73DFF41462046FFF73EFF41467D
:10083C002046FFF73FFF012220461146FFF7A1FF9C
:10084C00012E0CD920238F2211212046FFF74CFFBB
:10085C00022E04D0032220461146FFF792FF2046B9
:10086C00BDE8F047FFF72BBF022D01D12021B1E7E6
:10087C00042D01D14021ADE7082D01D16021A9E75C
:10088C00102D01D18021A5E7202DF3D1A021A1E7C6
:10089C00022E0CBF03210221A5E7BAF5005F01DA95
:1008AC002021A8E7BAF5804F01DA4021A3E7A1D1B6
:1008BC006021A0E7C72F01DC0421A2E7B7F5C87FB0
:1008CC0001DA08219DE7B7F5487F01DA0C2198E79A
:1008DC00B7F57A7F01DA102193E7B7F5C86F01DA23
:1008EC0014218EE7B7F5486F01DA182189E787D113
:1008FC001C2186E7B9F1D60F01DC012188E7B9F597
:10090C00CD7F01DC022183E740F29B1399457FF4F4
:10091C007EAF03217CE7844600202DE9F0410124C1
:10092C00086003F1FF38A04526DD069D52F824002F
:10093C00A600A84204F101051CDD164456F8046C0F
:10094C00B04217DD2E469E42354652F82670A6EB75
:10095C00040E03D0B84206F10106F4D0B84209DD0A
:10096C0008680E2806DC451C0D600EF101054CF8DC
:10097C00204025442C46D6E7BDE8F081F0B5012394
:10098C0004468B420FDA54F8046F1A46254655F884
:10099C00047CB74203DD013A45F80479F7D140F8FD
:1009AC0022600133EDE7F0BD2DE9F04301239046C1
:1009BC000D46434516DA55F8046F1C46AC4600EB61
:1009CC008609D9F800205CF8047C964650F827205C
:1009DC00964503DD013C4CF80479F2D141F82460D2
:1009EC000133E6E7BDE8F0832DE9F04104461E46ED
:1009FC0010460D460A682146FFF7D6FF4FF0FF322E
:100A0C00271FC6F100082968944691421FDD013268
:100A1C0010462A60814201D10437F4E7BCF1FF3F54
:100A2C000CBFE646D7F800E054F82030A3EB0E03D9
:100A3C00B34201DC984508DDD5F800E00EF1010366
:100A4C002B6054F8203044F82E300130E2E7204679
:100A5C00BDE8F041FFF792BFF7B50546089F0C467D
:100A6C000097FFF758FF099B2846FFF7BDFF226848
:100A7C000A9B9A42D4BF2260236003B0F0BD0000F1
:100A8C002DE9F04F174600229B4605460C461346AF
:100A9C009FB0DDF8A890A24204DA55F8221001327A
:100AAC000B44F8E7DFF83482B3FBF4F34046002242
:100ABC00A24206DA55F822100132591A40F8041BEA
:100ACC00F6E70021854A136852F8040F01310344FC
:100ADC005068034490681B1848BF03339B1060296F
:100AEC0042F8043CEFD100231A467C4951F8040B20
:100AFC000132642A0344F9D140F6B7318B424BDD05
:100B0C0093FBF2F33C2BA8BF3C2300220FAE3146E3
:100B1C00924601320F2A41F804ABFAD10292042218
:100B2C003046CDE9003209A964236C4AFFF794FFE3
:100B3C00099B012B32DDB646002201207146DEF8FE
:100B4C0004C009680130ACEB010C83420EF1040EB9
:100B5C006244F3D1591E92FBF1F240F2DC5191FB4D
:100B6C00F2F229990A60012289F8002000225C48DF
:100B7C00A24219DB0022CDE90A22CDE90C220E9209
:100B8C000FA993421CDD51F82200642816DD554B49
:100B9C00CBF80030002397E01E23B6E7514A299981
:100BAC000A6089F800A0E1E755F8221048F8041B08
:100BBC0057F82210013240F8041BD9E70132E0E764
:100BCC00002007460146013BDFF810C1DFF810E1B9
:100BDC0005900793079B059A934259DD1346013301
:100BEC00D6F80480059356F8043BA8EB0309B9F139
:100BFC00030FEFDD4FF07F421D460692A84510DD36
:100C0C005CF825A0069C9245C8BF52465EF825A00C
:100C1C00C8BF2846A245C4BF2F46CDF818A0013541
:100C2C00ECE75CF828405CF82350A4EB050AC51AE5
:100C3C0005FB0AF595FBF9FA5CF82350069CAA44CF
:100C4C005CF82750A5EB0A0A04FB0AF4E411002C0B
:100C5C00C0DD0429BEDC5EF823505EF82880FB1A48
:100C6C00A8EB050803FB08F393FBF9F32B445EF8A0
:100C7C002750ED1A6A43D211ACD01EAB03EB81089E
:100C8C0064235A4392FBF4F4013148F8504CA1E729
:100C9C000AA8FFF773FE4A1003294FEA820318DDF6
:100CAC001EA901EB820151F8543C51F8502C13440D
:100CBC0003EBD3735B10DA1EB42A3FF668AF0A4A13
:100CCC00D35CCBF800300123289A13701FB0BDE819
:100CDC00F08F1EAA134453F8503CECE7F0030020AD
:100CEC008005002019FCFFFFC71C0A0808B5024B41
:100CFC001B685B6C019308BDD001060808B5024B5C
:100D0C001B689B6C019308BDD001060808B5024B0B
:100D1C001B685B68019308BD9C01060808B5024B73
:100D2C001B685B69019308BD9C01060808B5024B62
:100D3C001B689B68019308BDB001060808B5024BFF
:100D4C001B68DB68019308BDB001060808B5024BAF
:100D5C001B681B69019308BDB001060808B5024B5E
:100D6C001B681B6C019308BDAC01060808B5024B4F
:100D7C001B68DB6C019308BDAC01060808B5024B7F
:100D8C001B689B6D019308BDAC01060808B5024BAE
:100D9C001B68DB6D019308BDAC01060808B5024B5E
:100DAC001B681B6E019308BDAC01060808B5024B0D
:100DBC001B685B6E019308BDAC01060808B5024BBD
:100DCC001B689B6E019308BDAC01060808B5024B6D
:100DDC001B68DB6E019308BDAC01060808B5024B1D
:100DEC001B681B6F019308BDAC01060808B5024BCC
:100DFC001B685B6F019308BDAC01060808B5034B7B
:100E0C001B68D3F88030019308BD0000AC010608C4
:100E1C0008B5034B1B68D3F89030019308BD000054
:100E2C00AC01060808B5024B1B68DB69019308BDD1
:100E3C00B401060808B5024B1B681B6A019308BD78
:100E4C00B401060808B5024B1B689B69019308BDE9
:100E5C00C401060808B5024B1B685B6A019308BD08
:100E6C00C401060808B5024B1B689B6A019308BDB8
:100E7C00C401060808B5024B1B68DB6A019308BD68
:100E8C00C401060808B5024B1B681B6B019308BD17
:100E9C00C401060808B5024B1B685B6B019308BDC7
:100EAC00C401060808B5024B1B689B6B019308BD77
:100EBC00C401060808B5024B1B681B6C019308BDE6
:100ECC00C401060808B5024B1B681B68019308BDDA
:100EDC00D801060808B5024B1B685B68019308BD76
:100EEC00D801060808B5024B1B681B69019308BDA5
:100EFC00D801060808B5024B1B685B69019308BD55
:100F0C00D801060808B5024B1B689B69019308BD04
:100F1C00D801060808B5024B1B68DB69019308BDB4
:100F2C00D801060808B5024B1B681B6A019308BD63
:100F3C00D801060808B5024B1B689B6C019308BDD1
:100F4C00C001060808B5024B1B685B68019308BD1D
:100F5C00A401060808B5024B1B685B69019308BD28
:100F6C00A401060808B5034B1B68D3F89030019315
:100F7C0008BD0000A401060808B5034B1B68D3F894
:100F8C009C30019308BD0000A401060808B5024B73
:100F9C001B68DB6B019308BDCC01060808B5024B3E
:100FAC001B685B68019308BDC801060808B5024BB5
:100FBC001B689B68019308BDC801060808B5024B65
:100FCC001B68DB68019308BDC801060808B5024B15
:100FDC001B681B69019308BDC801060808B5024BC4
:100FEC001B685B69019308BDC801060808B5024B74
:100FFC001B689B69019308BDC801060808B5024B24
:10100C001B68DB69019308BDC801060808B5024BD3
:10101C001B681B6A019308BDC801060808B5024B82
:10102C001B681B6B019308BDC801060808B5024B71
:10103C001B685B6B019308BDC801060808B5024B21
:10104C001B681B6C019308BDC801060808B5024B50
:10105C001B685B6C019308BDC801060808B5024B00
:10106C001B681B68019308BDA001060808B5024B5C
:10107C001B685B68019308BDA001060808B5024B0C
:10108C001B685B6C019308BDA00106080021FFF7EB
:10109C0061BF7047F8B5064615460C468F18BC4222
:1010AC0006D0336830469B6814F8011B9847F6E766
:1010BC002846F8BD0022007CFFF770BE0021007CA2
:1010CC00FFF774BE0021007CFFF778BE0021007C86
:1010DC00FFF77CBE0021007CFFF780BE10B50446F4
:1010EC00142100F0D7FC204610BD000010B54FF4C1
:1010FC007A73044608460021C4E90113034B1146D8
:10110C0023602074FFF77AFE204610BD881D0A0864
:10111C000022007CFFF722BE0023007C1A461946F1
:10112C00FFF724BE7FB500221423CDE90122ADF8D0
:10113C0004300B78007C8DF808304B680393CB6837
:10114C0004930B7A01A90593FFF762FE07B05DF8D3
:10115C0004FB1FB5003B8DF800104FF0640118BF65
:10116C0001230391694601928DF80830FFF7DAFFED
:10117C0005B05DF804FB0123FFF7EBBF0022007CF8
:10118C00FFF7FCBDC9B2FFF7F9BF0022007CFFF7E7
:10119C00FDBD0121FFF7F9BF704710B504461821BA
:1011AC0000F078FC204610BDF8B50E46002400F186
:1011BC000807051D17F8011D0A22304600F00BF92F
:1011CC00AF42044401D12046F8BD002CF2D02E21B0
:1011DC00304600F0E1F80444ECE7000010B504469A
:1011EC00044B1122002140F8043B00F06BFC20461C
:1011FC0010BD00BFB01D0A080346074A10B543F8DE
:10120C00042B01F1100251F8044B914243F8044BAA
:10121C00F9D10A781A7010BDB01D0A08024AC0E94B
:10122C000021042202757047B01D0A0810B59DF804
:10123C00084044EA0324042344EA024444EA0164D7
:10124C004460037510BD000037B5044D05609DF872
:10125C0018500095FFF7EAFF03B030BDB01D0A0827
:10126C00014B024A1A60704710070020BC1D0A0887
:10127C00002340681A46FFF791BE00220221406805
:10128C00FFF79CBE002240681146FFF78FBE00227C
:10129C0040681146FFF79ABE002340681A4619466B
:1012AC00FFF79CBE002340681A461946FFF79EBE06
:1012BC0000214068FFF7C2BE00214068FFF7C6BEA0
:1012CC000022406881F00101FFF798BE00224068BF
:1012DC00FFF7A4BE002240681146FFF7A7BE00220C
:1012EC0040681146FFF792BE70B515468EB00446A5
:1012FC0008A8FFF773FF1122002103A800F0E2FBFE
:10130C000026284600F00AFC0A4B009681B25B6866
:10131C00284603AAFFF70EFE30B131462046FFF7F0
:10132C007DFF20460EB070BD204603A9FFF764FF79
:10133C00F7E700BF940B0020024B034A1A6000220F
:10134C005A60704714070020C81D0A08F8B50646F5
:10135C000D4600248F18BD420CD0336830469B6874
:10136C0015F8011B9847031E01DB1C44F3E7002C06
:10137C0008BF1C462046F8BD70B505460C4608460D
:10138C0049B100F0CBFB2B68024621462846BDE84C
:10139C007040DB68184770BD03689B68184708B538
:1013AC00FFF7EAFF08BD38B50D210546FFF7F4FF3E
:1013BC000A2104462846FFF7EFFF204438BD38B514
:1013CC000546FFF7D9FF04462846FFF7ECFF2044FB
:1013DC0038BDFFF7F4BF0023012A98BF0A2230B5AD
:1013EC008BB00C468DF8243009A92546B4FBF2F4D9
:1013FC0004FB1253DBB2092B94BF30333733DBB20F
:10140C00AA4201F8013DF0D9FFF7B6FF0BB030BD91
:10141C000022014B9A6070471C07002070B5002613
:10142C0004460D4640F8086FFFF760FC284625700F
:10143C00FFF7F8FC2046666070BD00000222002019
:10144C00044B1A60044B054A1860988098719A6096
:10145C00FFF778BD380700202C0700200000FFFFA5
:10146C00024B1A68024B1A60704700BF1000002034
:10147C003C070020704741747047704708B5007CEA
:10148C00FFF718FD20EAE07008BD08B5007CFFF7F7
:10149C00E9FC20EAE07008BD08B5007CFFF7F2FC1F
:1014AC0040EAE07008BD08B5007CFFF7E3FC40EAB9
:1014BC00E07008BD007CFFF7EDBC70B5467C0446BF
:1014CC000D462EB12946207CBDE87040FFF7C2BC0A
:1014DC00007CFFF7EFFC0028F4DC304670BD10B543
:1014EC000446142100F0D6FA204610BD4FF0000C33
:1014FC0010B50446084611464FF47A72C4E901C28D
:10150C00044A20742260012262741A46FFF79AFC86
:10151C00204610BD201E0A0838B50C4D2978BFF3A3
:10152C005B8F11F001040FD12846FEF7B2FD58B1C4
:10153C002146074B074A0848FFF7D8FF2846FEF715
:10154C00ADFD064800F0AAFA034838BD400700205C
:10155C00C8070020440700204C08002087140A0804
:10156C00417470477047704708B50021007CFFF745
:10157C00C9FC40EAE07008BD08B50121007CFFF70A
:10158C00C1FC40EAE07008BD08B5007CFFF7B2FC76
:10159C0020EAE07008BD08B5007CFFF7A3FC20EA48
:1015AC00E07008BD38B50446007C0D46FFF7A2FC80
:1015BC00002801DC607C28B12946207CFFF7AAFCBE
:1015CC0020EAE07038BD007CFFF7ACBC10B50446D7
:1015DC00142100F05FFA204610BD704710B54FF48F
:1015EC007A73044608460021C4E90113044B2074A5
:1015FC002360012311466374FFF764FC204610BD81
:10160C00501E0A080022007CFFF764BC10B504468B
:10161C001422002100F056FA054B20466360054B5E
:10162C00E36040F2011323818123238210BD00BFAC
:10163C00900800209109002030B50E4D87B001A80C
:10164C00FFF7E4FF2978BFF35B8F11F001040ED193
:10165C002846FEF71EFD50B1214601AA0648FFF7A9
:10166C00BDFF2846FEF71AFD044800F017FA0248A1
:10167C0007B030BD600800206808002071150A080A
:10168C0010B504461422002100F01CFA054B20462C
:10169C006360054BE36040F20113238181232382B5
:1016AC0010BD00BF120A0020130B002010B50E4C09
:1016BC0086B001A8FFF7E4FF2378BFF35B8FDB074D
:1016CC000ED42046FEF7E5FC50B1012101AA0748D3
:1016DC00FFF784FF2046FEF7E1FC054800F0DEF939
:1016EC00024806B010BD00BF640800207C08002032
:1016FC00E7150A08002240681146FFF767BCF0B5F1
:10170C00154689B011220E460446002103A800F0AC
:10171C00D9F9284600F002FA002781B273682846EE
:10172C00009703AAFFF706FC30B139462046FFF7B5
:10173C0075FD204609B0F0BD204603A9FFF75CFDFE
:10174C00F7E7002240681146FFF760BC00224068B2
:10175C001146FFF76BBC00224068FFF75FBC00220C
:10176C00406881F00101FFF749BC002340681A462C
:10177C001946FFF73BBC002340681A461946FFF791
:10178C002DBC002240681146FFF710BC002202213C
:10179C004068FFF713BC002340681A46FFF7FEBBF6
:1017AC000422024B5A60024A1A607047940B0020C4
:1017BC00801E0A08014B1860704700BF14000020FF
:1017CC0008B5134B43B1FFF737FF03681B69984704
:1017DC00002801DDAFF300800E4B43B1FFF79CFEF8
:1017EC0003681B699847002801DDAFF300800A4BA2
:1017FC000BB1AFF30080094B43B1FFF757FF036800
:10180C001B699847002801DDAFF3008008BD00BFBD
:10181C0000000000000000000000000000000000BC
:10182C0008B5FFF7CDFFFFF779FA014B186008BD3B
:10183C00B40B00200548064A08B5121A054900F0F9
:10184C0033F9054B054A1A6008BD00BF0040024041
:10185C0004400240E01E0A08004002401E1C279A69
:10186C00002307B51A466FF077010093FFF784FB4E
:10187C0003B05DF804FB000007B543880A2B08D0C1
:10188C00502B0BD1094B1B684BB103B05DF804EB2B
:10189C001847FFF7E5FF03B05DF804FB00231A4679
:1018AC006FF077010093FFF767FBF4E7A00B0020C4
:1018BC00002110B51148FFF7E1FB114B1A68114BD1
:1018CC009A420CBF012200220F4B1A7001D0FFF775
:1018DC00B1FFFFF71BFA044600F0FCF80B4B13B1F9
:1018EC002046AFF3008000210848FFF74FFBBDE80E
:1018FC00104000210648FFF735BB00BFC1170A088E
:10190C00004002401E1C279A9C0B00200000000087
:10191C0085180A08024B986808B1FFF7EFB97047B1
:10192C00A80B0020172870B5044601D9002070BD03
:10193C00A0F10D03022B0BD9012824D800F078F864
:10194C000021007CFFF752FA80F00100C0B2EEE7F4
:10195C00124E3178BFF35B8F11F001050DD130467B
:10196C00FEF797FB48B129460D48FFF757FD304667
:10197C00FEF794FB0B4800F091F8094B1878FFF731
:10198C0059FA0028D2D1123C012C05D8FFF7C4FD1E
:10199C00007CFFF787FAD7E70120C8E7A40B0020EB
:1019AC00A80B002021190A08172838B504460D4643
:1019BC000AD8FF2908D0FFF7B5FF28B129462046E1
:1019CC00BDE83840FFF7B2B938BD38B504460D460E
:1019DC00FFF7B4F9FF2810D0062804D84D2323FABA
:1019EC0000F0C30709D42046FFF79CFF28B1294615
:1019FC002046BDE83840FFF7A9B938BD7047000054
:101A0C00002370B5202543801423084E0446038020
:101A1C00314685600561284600F03EF8314660602D
:101A2C00284600F039F8E060204670BDB41E0A0864
:101A3C0030B50E4D87B02978BFF35B8F11F00104E0
:101A4C0011D12846FEF725FB68B101A8FFF7D8FF96
:101A5C00214601AA0648FFF749FB2846FEF71EFB64
:101A6C00044800F01BF8024807B030BDB80B00204A
:101A7C00BC0B0020091A0A08002307B51A461946A0
:101A8C0000930348FFF7E0FB03B05DF804FB00BFD5
:101A9C00D00B0020FEF7FBBAFEF7F7BA0023014685
:101AAC001A46184600F042B80A44914200F1FF333E
:101ABC0000D1704710B511F8014B914203F8014F5A
:101ACC00F9D110BD03460244934200D1704703F88C
:101ADC00011BF9E738B50D4B04461D68AB6B7BB9A0
:101AEC001820FFF7BBFA0A4A0A4BA863C0E9002387
:101AFC00094B012283600B2383810023C0E904235B
:101B0C000022AB6B1C615A6138BD00BF1400002071
:101B1C000E33CDAB34126DE6ECDE0500034613F844
:101B2C00012B002AFBD1181A013870472DE9F84314
:101B3C00DFF8BC800646D8F800001F460D469146DB
:101B4C0000F058F8264B1C6834B9264C1C60264B08
:101B5C0013B11B68C4F8883063681F2B07DDD8F8F5
:101B6C00000000F049F84FF0FF30BDE8F8835EB399
:101B7C00D4F8880088B91D4B23B9D8F8000000F0C0
:101B8C003AF8F0E74FF48470FFF768FA0028F4D0C5
:101B9C000023C0E94033C4F8880001226368022E98
:101BAC0040F8239002FA03F200EB8301D0F80031E5
:101BBC0043EA0203C0F80031C1F8807002BFD0F8CC
:101BCC0004311A43C0F804216368D8F800005A1C89
:101BDC000233626044F8235000F00EF80020C4E792
:101BEC00740C0020E80B00200000000069100A08AB
:101BFC007800002070477047704700001D000A08ED
:101C0C005D000A0885000A0889000A080000000027
:101C1C004D4158333031303520776173206E6F74FD
:101C2C0020666F756E642E20506C65617365206341
:101C3C006865636B20776972696E672F706F776563
:101C4C00722E004174746163682073656E736F72D9
:101C5C0020746F2066696E676572207769746820DE
:101C6C007275626265722062616E6420746F2042CC
:101C7C006567696E2100204E6F2066696E6765721C
:101C8C003F0046696E6765722044657465637465D0
:101C9C0064202D2D20496E697469616C697A696EB6
:101CAC0067002E2E2E0048523D20002042504D0041
:101CBC002C2053504F323D200025005F5F5F606049
:101CCC0060616161616162626262626363636363EA
:101CDC0063636364646464646464646464646464BB
:101CEC0064646464646464636363636363636362B2
:101CFC00626262626261616161606060605F5F5FCD
:101D0C005E5E5E5D5D5D5C5C5C5B5B5A5A5959590D
:101D1C005858575756565555545453525251515072
:101D2C00504F4E4E4D4C4C4B4A4A494848474645FD
:101D3C00454443424241403F3E3E3D3C3B3A3938AC
:101D4C003837363534333231302F2E2D2C2B2A297F
:101D5C0028272625242322211F1E1D1C1B1A191778
:101D6C001615141311100F0E0C0B0A090706050398
:101D7C000201000000000000000000009F100A0893
:101D8C00E9100A08C1100A08A1100A08C9100A08AB
:101D9C00D1100A08D9100A08E1100A080000000046
:101DAC0000000000B5110A08A5110A08A7110A08BD
:101DBC006170700000000000000000007D120A0835
:101DCC0087120A0891120A089B120A08A5120A081F
:101DDC00B1120A08BD120A08C5120A08CD120A0867
:101DEC00D9120A08E1120A08EB120A08F5120A08BD
:101DFC0025592D256D2D25645425483A254D3A2518
:101E0C0053257A0061736374696D650000000000EE
:101E1C000000000081140A08EB140A08C7140A0811
:101E2C0059130A0897140A08B3140A08A5140A08C7
:101E3C00C1140A0883140A0889140A080000000057
:101E4C000000000073150A08D9150A08B1150A0814
:101E5C0059130A08A3150A0875150A0885150A08E6
:101E6C00D3150A0895150A086D150A08000000001C
:101E7C0000000000A3170A0899170A088F170A0810
:101E8C0001170A0883170A0877170A08BD120A08EF
:101E9C00C5120A086B170A0863170A0859170A08AB
:101EAC004F170A080B170A080000000001040A0863
:101EBC006D120A0845130A081D140A0849140A0869
:101ECC006D140A08AD170A08851A0A0800000000EC
:041EDC000000000002
:041EE00000000000FE
:101EE4000500000006000000020000000A000000D7
:101EF400101E0A0818000020000000000000000066
:101F040000000000000000000000000000000000CD
:101F140000000000000000000000000000000000BD
:101F240000000000000000000000000000000000AD
:101F3400000000000000000000000000000000009D
:101F4400000000000000000000000000000000008D
:0C1F54000000000000000000790C0020DC
:101F6000FFFFFFFF00000102030405060708090A3E
:101F70000B0C0D0E0F101112131415161718191A39
:081F80001B1C1D1E1F20280080
:041F88007856341241
:04000005080A001CC9
:00000001FF
