:02000004080AE8
:1000000000000A08D8460A0800000600060005019C
:0800100004029A080000000040
:04001800A4400A08EE
:10001C0009480A4908B5884205D0094A824202D0EB
:10002C00121A03F03DFB0748074A0021121A03F08D
:10003C0045FB064808BD00BF00000020CC450A085F
:10004C00E4000020E8000020290D0020290D0020EC
:10005C0070B502F0A9F90025054E064CA41BA408A6
:10006C00A54200D170BD56F8043B98470135F7E71F
:10007C009C450A08BC450A0800F016B808B500F003
:10008C0063F8BDE8084002F047B901F0ADB801F0E3
:10009C00ABB801F0B1B80078B0FA80F04009704705
:1000AC0001230370704700001FB501F0FDFF4FF4F2
:1000BC00E13101F0DFFF1C4B0121188802F0F0F94F
:1000CC001A4B0121188802F0EBF9194B0121188801
:1000DC0002F0E6F9174B0121188802F0E1F902F061
:1000EC0023FA57230146144A144800F01BFB28B985
:1000FC0001F0DAFF124901F040FDFEE701F0D4FFF8
:10010C00104901F03AFD40F29B134FF48052CDE9B7
:10011C0001326423042200933C210223074800F09F
:10012C00C0FB05B05DF804FB0800002004000020B3
:10013C00000000200C000020801A0600880200201D
:10014C00B8400A08EB400A082DE9F04F574899B01F
:10015C0000F0D0FA4CF24F339842554F554E38D8E8
:10016C000025554C29463888256002F0AAF9534BD6
:10017C002946188802F0A5F901F096FF504901F0C4
:10018C00F2FC4FF00109DFF824A1DFF8608125684B
:10019C00E5B90121308802F094F9C82001F064F827
:1001AC002946308802F08DF9C82001F05DF85046E0
:1001BC0000F0A0FA4CF24F339842E8D9C4F8009002
:1001CC0001F072FF414601F0CEFCE0E700223D4B0E
:1001DC001A7064233C4C01213888236002F071F9B9
:1001EC000021308802F06DF9364B1D789846002DB1
:1001FC003DD1364F0121388802F063F901F054FFEC
:10020C00334901F0B0FC294EDFF8CCB0DFF8D0A0B8
:10021C0023685FFA85F9994516DA304600F067F9DC
:10022C0018B9304600F0A5F9F7E7304600F056FA59
:10023C004BF82900304600F05DFA4AF829003046A8
:10024C0000F062F90135E3E701230021388888F8D2
:10025C00003002F036F91F4B1F4A02931F4B204807
:10026C000193204B009321681F4B00F07FFC134B34
:10027C000121188802F025F91749194A4B238846A1
:10028C001746486E013B41F8040B506E13F0FF0308
:10029C0042F8040BF5D14B25044E304600F027F9FB
:1002AC0030BB304600F065F9F7E700BF880200204C
:1002BC000400002008000020F000002000000020B6
:1002CC001E410A08C4020020EC0000200C00002093
:1002DC004A410A085C040020C8020020F4000020F7
:1002EC00F80000205D040020580400202A410A0870
:1002FC00304600F0F3F948F82500304600F0FAF9E2
:10030C0047F825003046013500F0FEF8642DC4D1C5
:10031C005E4B5F4F02935F4B019700935E4A5F4BBE
:10032C0021685F4800F022FC01F0BEFE5D4901F03F
:10033C000AFC01F0B9FE3C680546002C80F2A28054
:10034C002D2101F0FDFB61420A22284601F017FC29
:10035C0001F0AAFE544901F0F6FB01F0A5FE534949
:10036C0001F0F1FB01F0A0FE4C4D06462C68002C70
:10037C0080F28A802D2101F0E3FB61420A22304693
:10038C0001F0FDFB4A4E01F08FFE4A4901F0DBFB08
:10039C0001F08AFE01F0DBFB0121308802F091F8BC
:1003AC00C82000F061FF0021308802F08AF8424832
:1003BC0001F00AFD01F07BFDC317024604A801F011
:1003CC0021FD0A22396808A801F093FC0A22296849
:1003DC000CA801F08EFC394914A801F04CFC04A9BE
:1003EC0014A801F0B0FC364901F0B9FC08A901F0E1
:1003FC00AAFC344901F0B3FC334901F0B0FC0CA960
:10040C0001F0A1FC314901F0AAFC014610A801F051
:10041C0054FC14A801F0E5FB2D4B109A1B782D49C8
:10042C008DF8003014A83C2301F092F8159C7CB197
:10043C006368013B63605BB9236820469B689847FF
:10044C00A368013BA3601BB923682046DB6898476F
:10045C000121308802F035F8C82000F005FF00219A
:10046C00308802F02EF810A801F0BBFB0CA801F0AC
:10047C00B8FB08A801F0B5FB04A801F0B2FB19B059
:10048C00BDE8F08F21465FE7214677E75C0400204A
:10049C00F40000205D040020C80200205804002055
:1004AC00F80000204E410A0853410A0858410A0836
:1004BC000C00002061410A080000E0C063410A08FA
:1004CC006E410A087E410A0881410A088A410A08DD
:1004DC00E80000208C410A080122024B02481A70E5
:1004EC0000F004B8E800002088020020704790F863
:1004FC00383090F83900181AC3B240B20028BCBF8B
:10050C00181D40B2C0B2704708B50246FFF7EFFFA6
:10051C0030B192F83930013303F0030382F83930EB
:10052C0008BD70B5044616460D46006801F0FAF990
:10053C002068314603689B6898470021206801F0C9
:10054C00F8F901222946206801F0E9F920680368CE
:10055C001B69984720B1206803685B699847C0B253
:10056C0070BD04220179FFF7DCBF06220179FFF789
:10057C00D8BF2DE9F7430446FFF7F7FF06462046A0
:10058C00FFF7EFFF864200F08E80861B4FF057017D
:10059C00206848BF2036677901F0C8F92068072128
:1005AC0003684FF020089B689847206801F0C5F954
:1005BC004FF00009774307EB4707002F74DD202F1E
:1005CC00C9BF65793D4605EB4505B8FBF5F2C8BFDB
:1005DC00554357212A4620687F1B01F0A0F9002DB6
:1005EC00EBDD94F838302068013303F0030384F812
:1005FC00383003688DF807905B6998478DF80600D2
:10060C00206803685B6998478DF8050020680368CB
:10061C005B6998478DF8040094F83830019A0233DE
:10062C00C2F3110244F823206379012B19D92068F5
:10063C0003685B6998478DF80600206803685B695E
:10064C0098478DF80500206803685B6998478DF81A
:10065C00040094F83830019A0633C2F3110244F8BE
:10066C0023206379022B19D9206803685B699847AA
:10067C008DF80600206803685B6998478DF80500C3
:10068C00206803685B6998478DF8040094F838304B
:10069C00019A0A33C2F3110244F823206379A3EBC5
:1006AC0083031D449BE70026B0B203B0BDE8F08382
:1006BC0070B505460E4600F0A7FB044600F0A4FBFF
:1006CC00001BB04208D82846FFF753FF012804D07E
:1006DC00012000F0C9FDF1E7002070BD10B5FA2132
:1006EC000446FFF7E5FF20B194F83830023354F894
:1006FC00230010BD10B5FA210446FFF7D9FF20B135
:10070C0094F83830063354F8230010BDFF220179D9
:10071C00FFF707BF10B5FE2201790446FFF701FF72
:10072C00A07110BD70B5044616461D4608462160E2
:10073C0001F0C6F83146206801F0BEF8204625715C
:10074C00FFF7E4FF152804D12046FFF7E3FF012053
:10075C0070BD0020FCE770B5044616461D460068C7
:10076C0001F0E0F82068314603689B6898472068E0
:10077C00294603689B6898472068BDE8704001F0E3
:10078C00DCB80B460C220179FFF7E5BF0B460D22B6
:10079C000179FFF7E0BF0B460E220179FFF7DBBFB3
:1007AC000B4610220179FFF7D6BF10B5044601792C
:1007BC0000230422FFF7CFFF2046217900230522D6
:1007CC00FFF7C9FF204621790023BDE8104006221F
:1007DC00FFF7C1BF2DE9F0410D4617460A460179D6
:1007EC0004461E46FFF79DFE00EA07032A462046F4
:1007FC0021793343BDE8F041FFF7ADBF38B5BF22D7
:10080C00402309210446FFF7E5FF00F0FDFA0546F9
:10081C0000F0FAFA401B63280AD8092220462179F5
:10082C00FFF77FFE430603D5012000F01DFDEFE727
:10083C0038BD0B46F8220921FFF7CCBF0B469F228F
:10084C000A21FFF7C7BF0B46E3220A21FFF7C2BFFD
:10085C000B46FC220A21FFF7BDBF0B461F220821C5
:10086C00FFF7B8BF1023EF220821FFF7B3BF013900
:10087C001346032914D8DFE801F002060B0EF82208
:10088C001121FFF7A7BF1B018F2203F0F003F7E73D
:10089C00F8221221F5E71B018F2203F0F003F8E791
:1008AC0070472DE9F0471546DDE90879044688467E
:1008BC001E46DDF828A0FFF7A1FF012D4AD100212B
:1008CC002046FFF7CAFF2046FFF7CCFF032E55D179
:1008DC0007212046FFF7ADFFBAF5805F667152DA4B
:1008EC0000212046FFF7AAFF632F59DC0021204688
:1008FC00FFF7A9FFB9F1750F72DC00212046FFF755
:10090C00A7FF41462046FFF73CFF41462046FFF734
:10091C003DFF41462046FFF73EFF41462046FFF78C
:10092C003FFF012220461146FFF7A1FF012E0CD9F3
:10093C0020238F2211212046FFF74CFF022E04D0DA
:10094C00032220461146FFF792FF2046BDE8F047F0
:10095C00FFF72BBF022D01D12021B1E7042D01D1CE
:10096C004021ADE7082D01D16021A9E7102D01D15F
:10097C008021A5E7202DF3D1A021A1E7022E0CBFE9
:10098C0003210221A5E7BAF5005F01DA2021A8E7CF
:10099C00BAF5804F01DA4021A3E7A1D16021A0E78D
:1009AC00C72F01DC0421A2E7B7F5C87F01DA0821C3
:1009BC009DE7B7F5487F01DA0C2198E7B7F57A7F08
:1009CC0001DA102193E7B7F5C86F01DA14218EE72D
:1009DC00B7F5486F01DA182189E787D11C2186E722
:1009EC00B9F1D60F01DC012188E7B9F5CD7F01DC27
:1009FC00022183E740F29B1399457FF47EAF0321DC
:100A0C007CE7844600202DE9F0410124086003F1C5
:100A1C00FF38A04526DD069D52F82400A600A8420A
:100A2C0004F101051CDD164456F8046CB04217DDC8
:100A3C002E469E42354652F82670A6EB040E03D085
:100A4C00B84206F10106F4D0B84209DD08680E2858
:100A5C0006DC451C0D600EF101054CF820402544C8
:100A6C002C46D6E7BDE8F081F0B5012304468B4255
:100A7C000FDA54F8046F1A46254655F8047CB74231
:100A8C0003DD013A45F80479F7D140F822600133CF
:100A9C00EDE7F0BD2DE9F043012390460D464345AB
:100AAC0016DA55F8046F1C46AC4600EB8609D9F8EB
:100ABC0000205CF8047C964650F82720964503DD10
:100ACC00013C4CF80479F2D141F824600133E6E79B
:100ADC00BDE8F0832DE9F04104461E4610460D4654
:100AEC000A682146FFF7D6FF4FF0FF32271FC6F1E9
:100AFC0000082968944691421FDD013210462A6095
:100B0C00814201D10437F4E7BCF1FF3F0CBFE6464C
:100B1C00D7F800E054F82030A3EB0E03B34201DC0D
:100B2C00984508DDD5F800E00EF101032B6054F870
:100B3C00203044F82E300130E2E72046BDE8F04189
:100B4C00FFF792BFF7B50546089F0C460097FFF7D5
:100B5C0058FF099B2846FFF7BDFF22680A9B9A4263
:100B6C00D4BF2260236003B0F0BD00002DE9F04F2C
:100B7C00174600229B4605460C4613469FB0DDF8EF
:100B8C00A890A24204DA55F8221001320B44F8E77F
:100B9C00DFF83482B3FBF4F340460022A24206DABB
:100BAC0055F822100132591A40F8041BF6E70021BF
:100BBC00854A136852F8040F01310344506803440A
:100BCC0090681B1848BF03339B10602942F8043C03
:100BDC00EFD100231A467C4951F8040B0132642AE8
:100BEC000344F9D140F6B7318B424BDD93FBF2F362
:100BFC003C2BA8BF3C2300220FAE3146924601325B
:100C0C000F2A41F804ABFAD1029204223046CDE906
:100C1C00003209A964236C4AFFF794FF099B012B4E
:100C2C0032DDB646002201207146DEF804C00968A8
:100C3C000130ACEB010C83420EF1040E6244F3D193
:100C4C00591E92FBF1F240F2DC5191FBF2F2299920
:100C5C000A60012289F8002000225C48A24219DBBC
:100C6C000022CDE90A22CDE90C220E920FA9934263
:100C7C001CDD51F82200642816DD554BCBF80030F2
:100C8C00002397E01E23B6E7514A29990A6089F898
:100C9C0000A0E1E755F8221048F8041B57F8221081
:100CAC00013240F8041BD9E70132E0E70020074687
:100CBC000146013BDFF810C1DFF810E10590079306
:100CCC00079B059A934259DD13460133D6F80480ED
:100CDC00059356F8043BA8EB0309B9F1030FEFDDBC
:100CEC004FF07F421D460692A84510DD5CF825A00A
:100CFC00069C9245C8BF52465EF825A0C8BF284640
:100D0C00A245C4BF2F46CDF818A00135ECE75CF81E
:100D1C0028405CF82350A4EB050AC51A05FB0AF51C
:100D2C0095FBF9FA5CF82350069CAA445CF8275012
:100D3C00A5EB0A0A04FB0AF4E411002CC0DD04291B
:100D4C00BEDC5EF823505EF82880FB1AA8EB050881
:100D5C0003FB08F393FBF9F32B445EF82750ED1AD1
:100D6C006A43D211ACD01EAB03EB810864235A4307
:100D7C0092FBF4F4013148F8504CA1E70AA8FFF7B4
:100D8C0073FE4A1003294FEA820318DD1EA901EBFA
:100D9C00820151F8543C51F8502C134403EBD3739B
:100DAC005B10DA1EB42A3FF668AF0A4AD35CCBF864
:100DBC0000300123289A13701FB0BDE8F08F1EAAD3
:100DCC00134453F8503CECE760040020F00500207D
:100DDC0019FCFFFF96410A0808B5024B1B685B6CB7
:100DEC00019308BDD001060808B5024B1B689B6C2B
:100DFC00019308BDD001060808B5024B1B685B685F
:100E0C00019308BD9C01060808B5024B1B685B6981
:100E1C00019308BD9C01060808B5024B1B689B6D2D
:100E2C00019308BD9C01060808B5024B1B685B6E5C
:100E3C00019308BD9C01060808B5024B1B689B6812
:100E4C00019308BDB001060808B5024B1B68DB68AE
:100E5C00019308BDB001060808B5024B1B681B695D
:100E6C00019308BDB001060808B5024B1B681B6C4A
:100E7C00019308BDAC01060808B5024B1B68DB6C7E
:100E8C00019308BDAC01060808B5024B1B689B6DAD
:100E9C00019308BDAC01060808B5024B1B68DB6D5D
:100EAC00019308BDAC01060808B5024B1B681B6E0C
:100EBC00019308BDAC01060808B5024B1B685B6EBC
:100ECC00019308BDAC01060808B5024B1B689B6E6C
:100EDC00019308BDAC01060808B5024B1B68DB6E1C
:100EEC00019308BDAC01060808B5024B1B681B6FCB
:100EFC00019308BDAC01060808B5024B1B685B6F7B
:100F0C00019308BDAC01060808B5034B1B68D3F868
:100F1C008030019308BD0000AC01060808B5034BF6
:100F2C001B68D3F89030019308BD0000AC01060893
:100F3C0008B5024B1B68DB69019308BDB4010608B8
:100F4C0008B5024B1B681B6A019308BDB401060867
:100F5C0008B5024B1B689B69019308BDC4010608C8
:100F6C0008B5024B1B685B6A019308BDC4010608F7
:100F7C0008B5024B1B689B6A019308BDC4010608A7
:100F8C0008B5024B1B68DB6A019308BDC401060857
:100F9C0008B5024B1B681B6B019308BDC401060806
:100FAC0008B5024B1B685B6B019308BDC4010608B6
:100FBC0008B5024B1B689B6B019308BDC401060866
:100FCC0008B5024B1B681B6C019308BDC4010608D5
:100FDC0008B5024B1B681B68019308BDD8010608B5
:100FEC0008B5024B1B685B68019308BDD801060865
:100FFC0008B5024B1B681B69019308BDD801060894
:10100C0008B5024B1B685B69019308BDD801060843
:10101C0008B5024B1B689B69019308BDD8010608F3
:10102C0008B5024B1B68DB69019308BDD8010608A3
:10103C0008B5024B1B681B6A019308BDD801060852
:10104C0008B5024B1B689B6C019308BDC0010608D8
:10105C0008B5024B1B681B68019308BDA401060868
:10106C0008B5024B1B685B68019308BDA401060818
:10107C0008B5024B1B685B69019308BDA401060807
:10108C0008B5024B1B68DB6C019308BDA401060874
:10109C0008B5024B1B685B6D019308BDA4010608E3
:1010AC0008B5024B1B689B6D019308BDA401060893
:1010BC0008B5034B1B68D3F89030019308BD0000B2
:1010CC00A401060808B5034B1B68D3F89C300193A8
:1010DC0008BD0000A401060808B5024B1B689B68FC
:1010EC00019308BDCC01060808B5024B1B685B696F
:1010FC00019308BDCC01060808B5024B1B681B6A9E
:10110C00019308BDCC01060808B5024B1B681B6B8C
:10111C00019308BDCC01060808B5024B1B68DB6BBC
:10112C00019308BDCC01060808B5024B1B685B682F
:10113C00019308BDC801060808B5024B1B689B68E3
:10114C00019308BDC801060808B5024B1B68DB6893
:10115C00019308BDC801060808B5024B1B681B6942
:10116C00019308BDC801060808B5024B1B685B69F2
:10117C00019308BDC801060808B5024B1B689B69A2
:10118C00019308BDC801060808B5024B1B68DB6952
:10119C00019308BDC801060808B5024B1B681B6A01
:1011AC00019308BDC801060808B5024B1B681B6BF0
:1011BC00019308BDC801060808B5024B1B685B6BA0
:1011CC00019308BDC801060808B5024B1B681B6CCF
:1011DC00019308BDC801060808B5024B1B685B6C7F
:1011EC00019308BDC801060808B5024B1B681B68B3
:1011FC00019308BDA001060808B5024B1B685B688B
:10120C00019308BDA001060808B5024B1B689B683A
:10121C00019308BDA001060808B5024B1B681B69A9
:10122C00019308BDA001060808B5024B1B689B6919
:10123C00019308BDA001060808B5024B1B68DB6AC8
:10124C00019308BDA001060808B5024B1B681B6B77
:10125C00019308BDA001060808B5024B1B685B6C26
:10126C00019308BDA00106080021FFF701BF10B5CE
:10127C00836804460BB901F08DF9C3689847A368DD
:10128C001BB103222146204698472046BDE810405A
:10129C00102101F07BB970470020704710B504464F
:1012AC00102101F073F9204610BD08B5FFF7F6FFC9
:1012BC0008BD10B58368044613B103220146984754
:1012CC00204610BD002230B54FF69C74026084801D
:1012DC008D888C800C68858004600A6030BD10B5E8
:1012EC0004460068FFF788FF204610BD38B5C46877
:1012FC00F4B12378022B03D104F10C00FFF7EFFFBC
:10130C00656835B12846FFF7D4FF1021284601F057
:10131C003DF9A56835B12846FFF7CBFF10212846CB
:10132C0001F034F92046BDE83840142101F02EB903
:10133C0038BD38B5046805467CB16368013B636011
:10134C005BB9236820469B689847A368013BA36060
:10135C001BB923682046DB689847284638BD0B68C4
:10136C00036013B15A6801325A60704773B50E4668
:10137C00044656F8043B0D4601A831460093FFF78E
:10138C00EEFF009B019A23600023626001A8019389
:10139C000093FFF7CEFF3046FFF7CBFF284608211E
:1013AC0001F0F4F8204602B070BD13B56C460B4644
:1013BC00024603C884E8030093E8030082E80300B4
:1013CC0094E8030083E8030002B010BD826810B5F6
:1013DC000AB901F0DFF8C368BDE81040184708B53A
:1013EC00006800F11001FFF7F1FF08BD826810B52D
:1013FC000AB901F0CFF8C368BDE81040184708B52A
:10140C00006800F11001FFF7F1FF08BD38B50023AB
:10141C000446036010200D46FEF737FE28B1012369
:10142C00C0E90133024BC56003602060204638BD23
:10143C0058420A0838B5002383608B6804460D4671
:10144C002BB102229847EB68E360AB68A36020469F
:10145C0038BD0000F0B589B004686846FFF732FF6C
:10146C004FF00203D4E84F2F002A03D1C4E8413FC8
:10147C000029F7D125D104F10C0569462846FFF760
:10148C0021FF0123BFF35B8F63700020BFF35B8FE1
:10149C0004F1080353E8006F43E80002002AF9D175
:1014AC00BFF35B8F6EB1FFF7EBFD78B12946304689
:1014BC00FFF78CFF3046FFF7FCFE1021304601F0A1
:1014CC0065F86846FFF70BFF09B0F0BD314602A87E
:1014DC00FFF7B0FFE068B4F9105008B102F02CF936
:1014EC0006901020ADF81C50FEF7CFFD0546E8B174
:1014FC00002787601820FEF7C8FD044688B1014616
:10150C00876002A8FFF751FF049BA268A360059BAC
:10151C000492E26806A9E36004F110000592FFF75B
:10152C00D1FE084B2C60EB60074BAB6006A8FFF7B5
:10153C00D6FE02A8FFF7BDFE002229460348FFF79E
:10154C00A7FDB7E7EB130A0881160A087B120A08F5
:10155C002DE9F0478AB005460C46174698469DF88B
:10156C004890FFF7C1FD07AE824638BB4FF62E738D
:10157C00059005A93046ADF81830FFF7A3FE1420EE
:10158C00FEF783FD044648B1022303700123C0E932
:10159C0001AA437031460C30FFF794FE28462146D1
:1015AC0040F8044BFFF732FF3046FFF798FE05A8D2
:1015BC00FFF795FE28460AB0BDE8F0870C234FF0E4
:1015CC00000A1420CDE908AA0793FEF75EFD014638
:1015DC0028B1C0E901AA80F800A080F801A004A8F5
:1015EC000391FFF713FF224B08200893FEF74DFDE4
:1015FC00824628B1039B04A940F8043BFFF7AFFED9
:10160C0042463946204600965FFA89F3CDF824A06D
:10161C00FFF772FDB8B9039B5B7803F0FF0293B937
:10162C004FF69C7305A903A80592ADF81830FFF787
:10163C0011FF05A8FFF753FE05A80999FFF796FEC1
:10164C0006A8FFF776FE039B04A906A80593FFF7EF
:10165C0086FE059B069A2B6000236A6006A80693FB
:10166C000593FFF766FE04A8FFF763FEA2E700BF31
:10167C0045170A08022AF8B5054607D0032A18D0E0
:10168C00012A01D10B6803600020F8BD18200E68F8
:10169C00FEF7FBFC044650B13146FFF7CBFE306938
:1016AC00B6F9147008B102F047F82061A7822C60DB
:1016BC00EAE70468002CE7D004F11000FFF70FFEF6
:1016CC002046FFF7F6FD1821204600F05FFFDBE710
:1016DC0038B5002383608B6804460D462BB102227B
:1016EC009847EB68E360AB68A360204638BD022ADC
:1016FC0070B5044607D0032A12D0012A01D10B6819
:10170C000360002070BD14200E68FEF7BEFC054679
:10171C0020B13146FFF7DCFF337C2B742560F0E7FA
:10172C000468002CEDD02046FFF7C3FD14212046A1
:10173C0000F02CFFE5E70000F0B5044689B00D463B
:10174C0001A81146FFF712FEA4B124B21DB1284620
:10175C0001F0F2FF054601A803A90395ADF810406E
:10176C00FFF778FE03A8FFF7BAFD02A8FFF7E1FD2B
:10177C0009B0F0BD0123019DD5E84F2F002A03D1FC
:10178C00C5E8413F0029F7D1EFD12B73BFF35B8F35
:10179C006B70BFF35B8F2B1D53E8006F43E8004267
:1017AC00002AF9D1BFF35B8F002EDED02046FFF765
:1017BC0067FC074660B1304605F10C01FFF716FED9
:1017CC003046FFF776FD1021304600F0DFFECCE707
:1017DC00314603A8FFF77CFF2B7B10208DF81C30C3
:1017EC00FEF753FC0546D0B187601420FEF74DFC84
:1017FC00044678B10146876003A8FFF7D6FD059B28
:10180C00A268A360069B0592E268E3609DF81C3019
:10181C0006922374064B2C60EB60064BAB6003A85E
:10182C00FFF747FD002229460348FFF731FCC7E7C5
:10183C000B140A08FB160A087B120A087047F8B545
:10184C00064615460C468F18BC4206D03368304607
:10185C009B6814F8011B9847F6E72846F8BD002250
:10186C00007CFFF721BB0021007CFFF725BB00218A
:10187C00007CFFF729BB0021007CFFF72DBB00216A
:10188C00007CFFF731BB10B50446142100F07EFE3E
:10189C00204610BD10B54FF47A730446084600215B
:1018AC00C4E90113034B114623602074FFF72CFB92
:1018BC00204610BD74420A080022007CFFF7D4BAFF
:1018CC000023007C1A461946FFF7D6BA7FB50022D2
:1018DC001423CDE90122ADF804300B78007C8DF88F
:1018EC0008304B680393CB6804930B7A01A90593DA
:1018FC00FFF714FB07B05DF804FB1FB5003B8DF838
:10190C0000104FF0640118BF012303916946019246
:10191C008DF80830FFF7DAFF05B05DF804FB012302
:10192C00FFF7EBBF0022007CFFF7AEBAC9B2FFF79E
:10193C00F9BF0022007CFFF7AFBA0121FFF7F9BF16
:10194C00704710B50446182100F020FE204610BD4B
:10195C00F8B50E46002400F10807051D17F8011D07
:10196C000A22304600F00BF9AF42044401D1204664
:10197C00F8BD002CF2D02E21304600F0E1F80444E2
:10198C00ECE7000010B50446044B1122002140F88E
:10199C00043B01F093FE204610BD00BF9C420A0898
:1019AC000346074A10B543F8042B01F1100251F815
:1019BC00044B914243F8044BF9D10A781A7010BDCC
:1019CC009C420A08024AC0E90021042202757047B1
:1019DC009C420A0810B59DF8084044EA03240423ED
:1019EC0044EA024444EA01644460037510BD0000FB
:1019FC0037B5044D05609DF818500095FFF7EAFFC8
:101A0C0003B030BD9C420A08014B024A1A60704771
:101A1C0080070020A8420A08002340681A46FFF7F6
:101A2C0083BB002202214068FFF78EBB0022406876
:101A3C001146FFF781BB002240681146FFF78CBBB3
:101A4C00002340681A461946FFF78EBB00234068F6
:101A5C001A461946FFF790BB00214068FFF7B4BB4C
:101A6C0000214068FFF7B8BB0022406881F00101FB
:101A7C00FFF78ABB00224068FFF796BB0022406844
:101A8C001146FFF799BB002240681146FFF784BB53
:101A9C0070B515468EB0044608A8FFF773FF1122E7
:101AAC00002103A801F00AFE0026284601F05FFE83
:101ABC000A4B009681B25B68284603AAFFF7C0FA6E
:101ACC0030B131462046FFF77DFF20460EB070BD89
:101ADC00204603A9FFF764FFF7E700BF140C0020B2
:101AEC00024B034A1A6000225A6070478407002098
:101AFC00B4420A08F8B506460D4600248F18BD42BC
:101B0C000CD0336830469B6815F8011B9847031EB0
:101B1C0001DB1C44F3E7002C08BF1C462046F8BD33
:101B2C0070B505460C46084649B101F020FE2B68FD
:101B3C00024621462846BDE87040DB68184770BD58
:101B4C0003689B68184708B5FFF7EAFF08BD38B56E
:101B5C000D210546FFF7F4FF0A2104462846FFF73E
:101B6C00EFFF204438BD38B50546FFF7D9FF0446D2
:101B7C002846FFF7ECFF204438BDFFF7F4BF0023E5
:101B8C00012A98BF0A2230B58BB00C468DF8243050
:101B9C0009A92546B4FBF2F404FB1253DBB2092B62
:101BAC0094BF30333733DBB2AA4201F8013DF0D990
:101BBC00FFF7B6FF0BB030BD0022014B9A607047A7
:101BCC008C07002070B5002604460D4640F8086FBF
:101BDC00FFF702F928462570FFF7AAF92046666040
:101BEC0070BD10B504460068FFF706FB204610BD1B
:101BFC0010B50446006808B1FFF7FEFA0023C4E9EB
:101C0C000133236010BD38B504460D460068013120
:101C1C00FFF7FAFA10B1C4E90005012038BD10B580
:101C2C000368044623B143688B4201D3012010BDE5
:101C3C002046FFF7E8FF0028F9D0A368002BF5D168
:101C4C0022681370F2E770B50E461146044615462D
:101C5C00FFF7E5FF20B92046FFF7CAFF204670BD0D
:101C6C002A4631462068A56001F01AFD0021226841
:101C7C00A368D154F2E738B5002304460D46C0E9F9
:101C8C0000338360037339B1084601F070FD2946B7
:101C9C0002462046FFF7D7FF204638BD884210B5D4
:101CAC000B46044604D0096821B19A68FFF7CBFFB4
:101CBC00204610BDFFF79CFFFAE7002310B5044641
:101CCC00C0E9003383600373FFF7E8FF204610BDC3
:101CDC0038B505460C4649B1084601F048FD214689
:101CEC0002462846FFF7AFFF284638BDFFF780FFB6
:101CFC00FAE710B5002304468AB0C4E90033A360A8
:101D0C002373084601A900F08DFA204601A9FFF7BC
:101D1C00DFFF20460AB010BD70B505460E4609B966
:101D2C00002070BD6AB1846814442146FFF777FF28
:101D3C000028F5D02868AB683146184401F0F4FC53
:101D4C00AC600120EDE710B58A6809680446FFF71E
:101D5C00E3FF10B92046FFF74BFF204610BD38B506
:101D6C0004460D4621B92046FFF742FF204638BDF8
:101D7C00084601F0FCFC294602462046FFF7CCFF42
:101D8C000028F0D0F2E7000002220020044B1A6079
:101D9C00044B054A1860988098719A60FFF760B9F7
:101DAC00A80700209C0700200000FFFF08B50020BA
:101DBC00FFF7AAF928B1FFF797F980F00100C0B23C
:101DCC0008BD0120FCE7000010B50A49044601F0EB
:101DDC0071F968B92046084901F08AF940B90749F8
:101DEC00204600F0C9FF01F08DF9054BC3E9000155
:101DFC0010BD00BF000040C1000060410000614503
:101E0C00B807002030B50446184893B0D0E900104C
:101E1C00521840EB030316480025D0E90010521865
:101E2C0040EB0303CDE90023242200210DEB02003B
:101E3C0001F044FC09A9684601F028FB162229464A
:101E4C0003A8029501F03AFC02A909A801F0F2FAE4
:101E5C0002A801F08CFC12AB184400F8415C02A9FA
:101E6C002046FFF708FF204613B030BDB80700200E
:101E7C00B007002010B50020FEF7CEFF0446A0B935
:101E8C00FFF7E6F8012810D12046FFF709F960B9F1
:101E9C00FFF78CFF10B9FFF71FF9F9E7FFF786FF83
:101EAC00BDE810400020FEF7B7BF204610BD1FB59F
:101EBC00FFF7E0FF10220021684601F0FFFB002134
:101ECC006846FEF7B1FF009805B05DF804FB000012
:101EDC00024B1A68024B1A60704700BF10000020BA
:101EEC00AC070020704741747047704708B5007C00
:101EFC00FFF766F820EAE07008BD08B5007CFFF734
:101F0C0037F820EAE07008BD08B5007CFFF740F810
:101F1C0040EAE07008BD08B5007CFFF731F840EAF4
:101F2C00E07008BD007CFFF73BB870B5467C0446FA
:101F3C000D462EB12946207CBDE87040FFF710B845
:101F4C00007CFFF73DF80028F4DC304670BD10B57E
:101F5C000446142100F01AFB204610BD4FF0000C73
:101F6C0010B50446084611464FF47A72C4E901C212
:101F7C00044A20742260012262741A46FEF7E8FFBC
:101F8C00204610BD0C430A0838B50C4D2978BFF318
:101F9C005B8F11F001040FD12846FEF77CF858B185
:101FAC002146074B074A0848FFF7D8FF2846FEF79B
:101FBC0077F8064801F064FA034838BDC0070020E2
:101FCC0048080020C4070020CC080020F71E0A088F
:101FDC00417470477047704708B50021007CFFF7CB
:101FEC0017F840EAE07008BD08B50121007CFFF746
:101FFC000FF840EAE07008BD08B5007CFFF700F868
:10200C0020EAE07008BD08B5007CFEF7F1FF20EA7D
:10201C00E07008BD38B50446007C0D46FEF7F0FFB5
:10202C00002801DC607C28B12946207CFEF7F8FFF3
:10203C0020EAE07038BD007CFEF7FABF10B504460C
:10204C00142100F0A3FA204610BD704710B54FF4D0
:10205C007A73044608460021C4E90113044B20742A
:10206C002360012311466374FEF7B2FF204610BDB6
:10207C003C430A080022007CFEF7B2BF10B50446B0
:10208C001422002101F01AFB054B20466360054B1E
:10209C00E36040F2011323818123238210BD00BF32
:1020AC0010090020110A002030B50E4D87B001A890
:1020BC00FFF7E4FF2978BFF35B8F11F001040ED119
:1020CC002846FDF7E8FF50B1214601AA0648FFF764
:1020DC00BDFF2846FDF7E4FF044801F0D1F90248A2
:1020EC0007B030BDE0080020E8080020E11F0A0816
:1020FC0010B504461422002101F0E0FA054B2046ED
:10210C006360054BE36040F201132381812323823A
:10211C0010BD00BF920A0020930B002010B50E4C8E
:10212C0086B001A8FFF7E4FF2378BFF35B8FDB07D2
:10213C000ED42046FDF7AFFF50B1012101AA07488C
:10214C00FFF784FF2046FDF7ABFF054801F098F937
:10215C00024806B010BD00BFE4080020FC080020B7
:10216C0057200A08002240681146FEF7F5BFF0B56B
:10217C00154689B011220E460446002103A801F031
:10218C009DFA284601F0F3FA002781B273682846BD
:10219C00009703AAFEF754FF30B139462046FFF7EB
:1021AC0011FC204609B0F0BD204603A9FFF7F8FB4F
:1021BC00F7E7002240681146FEF7EEBF00224068A8
:1021CC001146FEF7F9BF00224068FEF7EDBF002272
:1021DC00406881F00101FEF7D7BF002340681A4622
:1021EC001946FEF7C9BF002340681A461946FEF788
:1021FC00BBBF002240681146FEF79EBF00220221A1
:10220C004068FEF7A1BF002340681A46FEF78CBF5A
:10221C000422024B5A60024A1A607047140C0020C8
:10222C006C430A08931E222B4FF000032DE9F0415A
:10223C008CB00D4614468DF82C3026D9002829DA9E
:10224C002E462D230A2406F8013B40424FF001088C
:10225C000DF12B072246014601A801F00DFA029B55
:10226C000198092BCCBF37223022134407F80139CF
:10227C0008F101080028EDD142463046791C01F0E6
:10228C000FFA28460CB0BDE8F0810A2AD6D018B156
:10229C002E46DBE70A24FAE730232E464FF00208DD
:1022AC008DF82B300DF12A07E6E70000014B186082
:1022BC00704700BF1400002008B5134B43B1FFF763
:1022CC00F3FE03681B699847002801DDAFF300801B
:1022DC000E4B43B1FFF758FE03681B699847002863
:1022EC0001DDAFF300800A4B0BB1AFF30080094B5B
:1022FC0043B1FFF713FF03681B699847002801DD02
:10230C00AFF3008008BD00BF00000000000000001B
:10231C00000000000000000008B5FFF7CDFFFEF73D
:10232C0073FD014B186008BD340C00200548064AAB
:10233C0008B5121A054901F0B3F9054B054A1A60A4
:10234C0008BD00BF0040024004400240C8450A08D6
:10235C00004002401E1C279A002307B51A466FF056
:10236C0077010093FEF7AEFE03B05DF804FB0000AE
:10237C0007B543880A2B08D0502B0BD1094B1B688F
:10238C004BB103B05DF804EB1847FFF7E5FF03B062
:10239C005DF804FB00231A466FF077010093FEF7FB
:1023AC0091FEF4E7200C0020002110B51148FEF737
:1023BC0053FF114B1A68114B9A420CBF0122002299
:1023CC000F4B1A7001D0FFF7B1FFFEF715FD044655
:1023DC0001F07CF90B4B13B12046AFF300800021C8
:1023EC000848FEF799FEBDE8104000210648FEF7AC
:1023FC005FBE00BFB9220A08004002401E1C279A8B
:10240C001C0C0020000000007D230A08024B986879
:10241C0008B1FEF7E9BC7047280C0020172870B5EE
:10242C00044601D9002070BDA0F10D03022B0BD97D
:10243C00012824D800F078F80021007CFEF75CFD20
:10244C0080F00100C0B2EEE7124E3178BFF35B8F23
:10245C0011F001050DD13046FDF71DFE48B129469E
:10246C000D48FFF7AFFB3046FDF71AFE0B4801F0A5
:10247C0007F8094B1878FEF763FD0028D2D1123CFF
:10248C00012C05D8FFF780FD007CFEF791FDD7E706
:10249C000120C8E7240C0020280C002019240A086D
:1024AC00172838B504460D460AD8FF2908D0FFF77F
:1024BC00B5FF28B129462046BDE83840FEF7BCBC24
:1024CC0038BD38B504460D46FEF7BEFCFF2810D0CB
:1024DC00062804D84D2323FA00F0C30709D420465C
:1024EC00FFF79CFF28B129462046BDE83840FEF78F
:1024FC00B3BC38BD70470000002370B52025438065
:10250C001423084E04460380314685600561284635
:10251C0000F03EF831466060284600F039F8E06083
:10252C00204670BDA0430A0830B50E4D87B02978FF
:10253C00BFF35B8F11F0010411D12846FDF7ABFD01
:10254C0068B101A8FFF7D8FF214601AA0648FFF79A
:10255C00A1F92846FDF7A4FD044800F091FF0248BC
:10256C0007B030BD380C00203C0C002001250A08B7
:10257C00002307B51A46194600930348FFF738FAAB
:10258C0003B05DF804FB00BF500C0020FDF781BDCB
:10259C00FDF77DBD08B5FEF74FFE000081F0004150
:1025AC0002E000BF83F0004330B54FEA41044FEA2C
:1025BC00430594EA050F08BF90EA020F1FBF54EAC7
:1025CC00000C55EA020C7FEA645C7FEA655C00F063
:1025DC00E2804FEA5454D4EB5555B8BF6D420CDD34
:1025EC002C4480EA020281EA030382EA000083EAB7
:1025FC00010180EA020281EA0303362D88BF30BD57
:10260C0011F0004F4FEA01314FF4801C4CEA1131AC
:10261C0002D0404261EB410113F0004F4FEA03330B
:10262C004CEA133302D0524263EB430394EA050F96
:10263C0000F0A780A4F10104D5F1200E0DDB02FA05
:10264C000EFC22FA05F2801841F1000103FA0EF299
:10265C00801843FA05F359410EE0A5F120050EF15F
:10266C00200E012A03FA0EFC28BF4CF0020C43FA90
:10267C0005F3C01851EBE37101F0004507D54FF09D
:10268C00000EDCF1000C7EEB00006EEB0101B1F5ED
:10269C00801F1BD3B1F5001F0CD349085FEA300033
:1026AC004FEA3C0C04F101044FEA445212F5800F3E
:1026BC0080F09A80BCF1004F08BF5FEA500C50F1DB
:1026CC00000041EB045141EA050130BD5FEA4C0CBE
:1026DC00404141EB0101013C28BFB1F5801FE9D21B
:1026EC0091F0000F04BF01460020B1FA81F308BF3E
:1026FC002033A3F10B03B3F120020CDA0C3208DD0A
:10270C0002F1140CC2F10C0201FA0CF021FA02F1E4
:10271C000CE002F11402D8BFC2F1200C01FA02F154
:10272C0020FA0CFCDCBF41EA0C019040E41AA2BF79
:10273C0001EB0451294330BD6FEA04041F3C1CDA41
:10274C000C340EDC04F11404C4F1200220FA04F061
:10275C0001FA02F340EA030021FA04F345EA03010B
:10276C0030BDC4F10C04C4F1200220FA02F001FACD
:10277C0004F340EA0300294630BD21FA04F029464F
:10278C0030BD94F0000F83F4801306BF81F48011E8
:10279C000134013D4EE77FEA645C18BF7FEA655C5B
:1027AC0029D094EA050F08BF90EA020F05D054EA2D
:1027BC00000C04BF1946104630BD91EA030F1EBF32
:1027CC000021002030BD5FEA545C05D14000494136
:1027DC0028BF41F0004130BD14F580043CBF01F529
:1027EC00801130BD01F0004545F0FE4141F470010F
:1027FC004FF0000030BD7FEA645C1ABF19461046EA
:10280C007FEA655C1CBF0B46024650EA013406BFEA
:10281C0052EA033591EA030F41F4002130BD00BFA9
:10282C0090F0000F04BF0021704730B54FF4806466
:10283C0004F132044FF000054FF0000150E700BFE7
:10284C0090F0000F04BF0021704730B54FF4806446
:10285C0004F1320410F0004548BF40424FF0000133
:10286C003EE700BF42004FEAE2014FEA31014FEA76
:10287C0002701FBF12F07F4393F07F4F81F06051C5
:10288C00704732F07F4208BF704793F07F4F04BF10
:10289C0041F40021704730B54FF4607401F00045ED
:1028AC0021F000411CE700BF50EA010208BF70474D
:1028BC0030B54FF000050AE050EA010208BF70473E
:1028CC0030B511F0004502D5404261EB41014FF4A7
:1028DC00806404F132045FEA915C3FF4D8AE4FF0AF
:1028EC0003025FEADC0C18BF03325FEADC0C18BF92
:1028FC00033202EBDC02C2F1200300FA03FC20FAE3
:10290C0002F001FA03FE40EA0E0021FA02F114442F
:10291C00BDE600BF70B54FF0FF0C4CF4E06C1CEA48
:10292C0011541DBF1CEA135594EA0C0F95EA0C0FB9
:10293C0000F0DEF82C4481EA030621EA4C5123EA2C
:10294C004C5350EA013518BF52EA033541F480115B
:10295C0043F4801338D0A0FB02CE4FF00005E1FB0E
:10296C0002E506F00042E0FB03E54FF00006E1FB58
:10297C0003569CF0000F18BF4EF0010EA4F1FF049B
:10298C00B6F5007F64F5407404D25FEA4E0E6D41DB
:10299C0046EB060642EAC62141EA55514FEAC520EC
:1029AC0040EA5E504FEACE2EB4F1FD0C88BFBCF568
:1029BC00E06F1ED8BEF1004F08BF5FEA500E50F119
:1029CC00000041EB045170BD06F0004646EA0101DF
:1029DC0040EA020081EA0301B4EB5C04C2BFD4EB11
:1029EC000C0541EA045170BD41F480114FF0000E0A
:1029FC00013C00F3AB8014F1360FDEBF002001F078
:102A0C00004170BDC4F10004203C35DA0C341BDCF1
:102A1C0004F11404C4F1200500FA05F320FA04F0C3
:102A2C0001FA05F240EA020001F0004221F00041F7
:102A3C0010EBD37021FA04F642EB06015EEA430E6A
:102A4C0008BF20EAD37070BDC4F10C04C4F120059A
:102A5C0000FA04F320FA05F001FA04F240EA02004D
:102A6C0001F0004110EBD37041F100015EEA430E1E
:102A7C0008BF20EAD37070BDC4F1200500FA05F23E
:102A8C004EEA020E20FA04F301FA05F243EA0203BD
:102A9C0021FA04F001F0004121FA04F220EA0200CC
:102AAC0000EBD3705EEA430E08BF20EAD37070BD12
:102ABC0094F0000F0FD101F00046400041EB0101F2
:102ACC0011F4801F08BF013CF7D041EA060195F0D4
:102ADC00000F18BF704703F00046520043EB03038E
:102AEC0013F4801F08BF013DF7D043EA060370477B
:102AFC0094EA0C0F0CEA135518BF95EA0C0F0CD086
:102B0C0050EA410618BF52EA4306D1D181EA0301CB
:102B1C0001F000414FF0000070BD50EA410606BFC5
:102B2C001046194652EA430619D094EA0C0F02D10A
:102B3C0050EA013613D195EA0C0F05D152EA03364F
:102B4C001CBF104619460AD181EA030101F000416D
:102B5C0041F0FE4141F470014FF0000070BD41F0B6
:102B6C00FE4141F4780170BD70B54FF0FF0C4CF490
:102B7C00E06C1CEA11541DBF1CEA135594EA0C0FAF
:102B8C0095EA0C0F00F0A7F8A4EB050481EA030EFC
:102B9C0052EA03354FEA013100F088804FEA0333E3
:102BAC004FF0805545EA131343EA12634FEA0222B1
:102BBC0045EA111545EA10654FEA00260EF0004172
:102BCC009D4208BF964244F1FD0404F5407402D2C4
:102BDC005B084FEA3202B61A65EB03055B084FEA55
:102BEC0032024FF480104FF4002CB6EB020E75EB52
:102BFC00030E22BFB61A754640EA0C005B084FEA7A
:102C0C003202B6EB020E75EB030E22BFB61A7546F6
:102C1C0040EA5C005B084FEA3202B6EB020E75EB41
:102C2C00030E22BFB61A754640EA9C005B084FEAB9
:102C3C003202B6EB020E75EB030E22BFB61A7546C6
:102C4C0040EADC0055EA060E18D04FEA051545EAB5
:102C5C0016754FEA06164FEAC30343EA52734FEA5E
:102C6C00C2025FEA1C1CC0D111F4801F0BD141EAD7
:102C7C0000014FF000004FF0004CB6E711F4801F3C
:102C8C0004BF01430020B4F1FD0C88BFBCF5E06F1C
:102C9C003FF6AFAEB5EB030C04BFB6EB020C5FEA2C
:102CAC00500C50F1000041EB045170BD0EF0004E81
:102CBC004EEA113114EB5C04C2BFD4EB0C0541EAB3
:102CCC00045170BD41F480114FF0000E013C90E6B0
:102CDC0045EA060E8DE60CEA135594EA0C0F08BF74
:102CEC0095EA0C0F3FF43BAF94EA0C0F0AD150EA73
:102CFC0001347FF434AF95EA0C0F7FF425AF104606
:102D0C0019462CE795EA0C0F06D152EA03353FF42D
:102D1C00FDAE1046194622E750EA410618BF52EAAA
:102D2C0043067FF4C5AE50EA41047FF40DAF52EA7E
:102D3C0043057FF4EBAE12E74A0011D212F50012F4
:102D4C0011D20DD56FF47873B3EB62520ED44FEAF7
:102D5C00C12343F0004343EA505323FA02F0704777
:102D6C004FF00000704750EA013002D14FF0FF30B5
:102D7C0070474FF0000070474FF0FF0C1CEAD05228
:102D8C001EBF1CEAD15392EA0C0F93EA0C0F6FD0C2
:102D9C001A4480EA010C400218BF5FEA41211ED0A0
:102DAC004FF0006343EA501043EA5111A0FB01318C
:102DBC000CF00040B1F5000F3EBF490041EAD37161
:102DCC005B0040EA010062F17F02FD2A1DD8B3F1DD
:102DDC00004F40EBC25008BF20F00100704790F04C
:102DEC00000F0CF0004C08BF49024CEA502040EA9E
:102DFC0051207F3AC2BFD2F1FF0340EAC250704764
:102E0C0040F400004FF00003013A5DDC12F1190FA1
:102E1C00DCBF00F000407047C2F10002410021FA13
:102E2C0002F1C2F1200200FA02FC5FEA310040F12B
:102E3C00000053EA4C0308BF20EADC70704792F0A4
:102E4C00000F00F0004C02BF400010F4000F013ADC
:102E5C00F9D040EA0C0093F0000F01F0004C02BFD7
:102E6C00490011F4000F013BF9D041EA0C018FE746
:102E7C000CEAD15392EA0C0F18BF93EA0C0F0AD04C
:102E8C0030F0004C18BF31F0004CD8D180EA010072
:102E9C0000F00040704790F0000F17BF90F0004F0B
:102EAC00084691F0000F91F0004F14D092EA0C0FED
:102EBC0001D142020FD193EA0C0F03D14B0218BF80
:102ECC00084608D180EA010000F0004040F0FE40C6
:102EDC0040F40000704740F0FE4040F44000704762
:102EEC004FF0FF0C1CEAD0521EBF1CEAD15392EAE1
:102EFC000C0F93EA0C0F69D0A2EB030280EA010CD1
:102F0C0049024FEA402037D04FF0805343EA111169
:102F1C0043EA10130CF000408B4238BF5B0042F1C7
:102F2C007D024FF4000C8B4224BF5B1A40EA0C006C
:102F3C00B3EB510F24BFA3EB510340EA5C00B3EB9E
:102F4C00910F24BFA3EB910340EA9C00B3EBD10F8C
:102F5C0024BFA3EBD10340EADC001B0118BF5FEADE
:102F6C001C1CE0D1FD2A3FF650AF8B4240EBC25007
:102F7C0008BF20F0010070470CF0004C4CEA5020C8
:102F8C007F32C2BFD2F1FF0340EAC250704740F417
:102F9C0000004FF00003013A37E792F0000F00F009
:102FAC00004C02BF400010F4000F013AF9D040EA87
:102FBC000C0093F0000F01F0004C02BF490011F41B
:102FCC00000F013BF9D041EA0C0195E70CEAD15313
:102FDC0092EA0C0F08D142027FF47DAF93EA0C0FFA
:102FEC007FF470AF084676E793EA0C0F04D14B02DE
:102FFC003FF44CAF08466EE730F0004C18BF31F090
:10300C00004CCAD130F000427FF45CAF31F0004389
:10301C007FF43CAF5FE700BF4FF0FF3C06E000BF22
:10302C004FF0010C02E000BF4FF0010C4DF804CD45
:10303C004FEA40024FEA41037FEA226C18BF7FEA55
:10304C00236C11D001B052EA530C18BF90EA010F57
:10305C0058BFB2EB030088BFC81738BF6FEAE170E6
:10306C0018BF40F0010070477FEA226C02D15FEA82
:10307C00402C05D17FEA236CE4D15FEA412CE1D0EE
:10308C005DF8040B704700BF844608466146FFE7B5
:10309C000FB5FFF7C9FF002848BF10F1000F0FBD97
:1030AC004DF808EDFFF7F4FF0CBF012000205DF890
:1030BC0008FB00BF4DF808EDFFF7EAFF34BF012015
:1030CC0000205DF808FB00BF4DF808EDFFF7E0FFAE
:1030DC0094BF012000205DF808FB00BF4DF808EDFF
:1030EC00FFF7D2FF94BF012000205DF808FB00BF62
:1030FC004DF808EDFFF7C8FF34BF012000205DF844
:10310C0008FB00BF10B500210446FFF7D3FF20B920
:10311C002046BDE8104000F009B804F1004000F072
:10312C0005F8404261EB410110BD00BFD0B5FFF77F
:10313C0099FB00220B4B06460F46FFF7EBFBFFF704
:10314C00FBFD0446FFF76CFB0022074BFFF7E2FB8D
:10315C0002460B4630463946FFF724FAFFF7ECFDE2
:10316C002146D0BD0000F03D0000F0412DE9F047B4
:10317C00089E0D4604468E46002B40F083808A4202
:10318C00174647D9B2FA82F34BB1C3F1200105FAC5
:10319C0003FE20FA01F19F4041EA0E0E9C404FEADB
:1031AC001748BEFBF8FC1FFA87F908FB1CE20CFB66
:1031BC0009F0210C41EA024290420AD9BA180CF1EA
:1031CC00FF3180F01881904240F21581ACF1020C75
:1031DC003A44121AB2FBF8F008FB102200FB09F17A
:1031EC00A4B244EA0244A14209D93C1900F1FF32CD
:1031FC0080F00381A14240F2008102383C44641A01
:10320C00002140EA0C401EB10022DC40C6E900421D
:10321C00BDE8F08702B9FFDEB2FA82F3002B4FD182
:10322C008D1A01214FEA124E1FFA82F8B5FBFEFCF3
:10323C000EFB1C5508FB0CF0220C42EA0545A8427B
:10324C0007D97D190CF1FF3202D2A84200F2E980B5
:10325C0094462D1AB5FBFEF00EFB105508FB00F83A
:10326C00A4B244EA0544A04507D93C1900F1FF3249
:10327C0002D2A04500F2D9801046A4EB080440EA23
:10328C000C40C0E78B4208D9002E00F0B180002121
:10329C00C6E900050846BDE8F087B3FA83F10029BA
:1032AC004BD1AB4202D3824200F2B980841A65EB57
:1032BC00030301209E46002EAAD0C6E9004EA7E7C4
:1032CC009F40C3F12002D1404FEA174EB1FBFEF0F4
:1032DC001FFA87F80EFB101124FA02F29D4000FB36
:1032EC0008FC2A43150C45EA0145AC4504FA03F4E5
:1032FC0009D97D1900F1FF3180F08F80AC4540F287
:10330C008C8002383D44A5EB0C05B5FBFEF10EFBA1
:10331C00115C01FB08F995B245EA0C45A94507D9A2
:10332C007D1901F1FF3274D2A94572D902393D449D
:10333C00A5EB090541EA004178E7C1F120078B4074
:10334C0022FA07FC4CEA030C25FA07F44FEA1C4E50
:10335C00B4FBFEF91FFA8CF80EFB194420FA07F3A4
:10336C0009FB08FA8D401D432B0C43EA0444A2458B
:10337C0002FA01F200FA01F309D91CEB040409F179
:10338C00FF3048D2A24546D9A9F102096444A4EB06
:10339C000A04B4FBFEF00EFB104400FB08FAADB2BD
:1033AC0045EA0444A24508D91CEB040400F1FF359E
:1033BC002DD2A2452BD90238644440EA0940A0FB27
:1033CC000289A4EB0A044C45C6464D4619D316D0C7
:1033DC005EB1B3EB0E0264EB050404FA07F722FAB4
:1033EC0001F31F43CC40C6E900740021BDE8F0870F
:1033FC00314630460CE78C46EBE61046FFE643457B
:10340C00E6D2B8EB020E69EB0C050138E0E7284672
:10341C00D3E711468CE78146B9E7084673E70846BF
:10342C0049E7ACF1020C3D4413E702383C4424E775
:10343C00704700BF10B50C46416986B001F26C7143
:10344C00036982690491016803EB430303914168AA
:10345C0002EB4202029181680191C1682046009101
:10346C0004490B4404490A440449FDF7D5FE20469F
:10347C0006B010BDD6430A08C1430A08A1430A0886
:10348C00002301461A46184600F04CBC2DE9F041C9
:10349C000C46074600F0ECFC21468046384600F00E
:1034AC00EBFC436904469A0703F26C7605D164225F
:1034BC0096FBF2F302FB13637BBB4FF4C87396FBD2
:1034CC00F3F503FB1565B5FA85F56D093022684BEC
:1034DC0002FB053500F094FA00F09EFA654B1B6870
:1034EC0053B3D8F80430B34219D1D7E90067D8E9FF
:1034FC000823D8F80010D1B9964277EB030323DAEE
:10350C00D8E91223964277EB0303B4BF01230023BF
:10351C0023621BDBD8F828101AE00125D6E73046C9
:10352C0000F0C6F90028E0D14FF0FF3304E09642DA
:10353C0077EB030302DA00232362EBE7D8E91223CB
:10354C00964277EB0303F6DA01232362D8F8501086
:10355C004FF4616391FBF3F63C2003FB161393FBD2
:10356C00F0F200FB123061682368891AA2681B1AFA
:10357C00921B3B2B23606160A26034DD01316160E2
:10358C003C3B236063683B2B33DD0132A2603C3B48
:10359C006360A368172B32DDE269183B0132E261EC
:1035AC00A269A3600132062AC8BF0022A261E268A8
:1035BC0023690132E26055F823108A420EDD0B2B91
:1035CC00A2EB0102E26003F1010205BF0022636974
:1035DC002261013302BF22616361E26100F016FADD
:1035EC002046BDE8F081002BCCDA013961603C3318
:1035FC00C7E7002BCDDA013AA2603C33C8E7002BB9
:10360C00ECDAE2691833013AE261A269A360013A8B
:10361C0048BF0622A261E268013AE260002ADDD1CD
:10362C002369013B05D42361236955F82330E360FA
:10363C00D4E70B23236163695A1E626103F26B7238
:10364C00930705D1642192FBF1F301FB132363B9BA
:10365C004FF4C87192FBF1F301FB1323B3FA83F31C
:10366C005B0903F5B673E361DEE70123F9E700BFFD
:10367C00FC430A08840C002010B591FBF2F40029DD
:10368C0002FB141306DB002B01DA01349B1AC0E990
:10369C00004310BD002BC4BF04F1FF349B18F6E7A8
:1036AC000A44914200F1FF3300D1704710B511F874
:1036BC00014B914203F8014FF9D110BD034602446E
:1036CC00934200D1704703F8011BF9E738B50D4B55
:1036DC0004461D68AB6B7BB91820FDF785FD0A4AC3
:1036EC000A4BA863C0E90023094B012283600B231A
:1036FC0083810023C0E904230022AB6B1C615A6157
:10370C0038BD00BF140000200E33CDAB34126DE673
:10371C00ECDE050010F8012B11F8013B012A28BF43
:10372C009A42F7D0D01A7047034611F8012B03F8D0
:10373C00012B002AF9D17047024B0146186800F0A2
:10374C0003B800BF1400002070B5044608460D46AF
:10375C0000F00DF8461C31462046FDF775FD044679
:10376C0018B132462946FFF79BFF204670BD034631
:10377C0013F8012B002AFBD1181A0138704710B529
:10378C006AB10139841810F8013B11F8012F9342EA
:10379C0003D1A04201D0002BF5D1981A10BD1046D0
:1037AC00FCE700002DE9F0438C4686463A4E604615
:1037BC001CF8014BA55D15F00805F8D12D2C34D162
:1037CC004FF001089CF8004000F1020C002B5ED079
:1037DC00102B0CD1302C0AD19CF8000000F0DF002B
:1037EC0058284FD110239CF801400CF1020C4FF0DB
:1037FC00FF37B7FBF3F7002503FB07F928466FEA01
:10380C000909A4F13006092E18D83446A34224DD48
:10381C00002D1FDB87421DD301D1A1451ADB0125E9
:10382C0000FB03401CF8014BEBE72B2C08BF9CF86A
:10383C000040A84608BF00F1020CC7E7A4F14106FE
:10384C00192E01D8373CE1E7A4F16106192E04D8F2
:10385C00573CDBE74FF0FF35E4E7002D07DA222376
:10386C004FF0FF30CEF8003042B9BDE8F083B8F12C
:10387C00000F00D04042002AF7D00DB10CF1FF31FF
:10388C001160F2E73024002BB1D10823AFE7302CC4
:10389C00A2D00A23ABE700BF99440A0813460A4694
:1038AC00014602480068FFF77DBF00BF14000020EE
:1038BC002DE9F74F804600F0DBFA40F2B1739845E2
:1038CC0040F397806FF4F66340F26D1243449B1003
:1038DC00A8F2B27502FB05356FF06302A8F26D73A6
:1038EC0093FBF2F36FF4C8621D444FF4C873424467
:1038FC00B2FBF3F298FBF3F71544642203FB178732
:10390C0098FBF2F6B7FA87FC04464FF0070E02FB61
:10391C00168608F00303C0F804804FEA5C1C00F123
:10392C00500B0093227A63694A2A28D10099EA182D
:10393C0001B906B90FBB3B2BD4BF002301231344A1
:10394C005A1EA3692C49283401FB02322368134404
:10395C001A46DB1744E90223A345E3D1D0E9084515
:10396C00D0E91223944275EB0303B4BF0123002367
:10397C000360012003B0BDE8F08F0023DFE7442A89
:10398C0001D1EA18DDE7009A6ABB002E0CBFE046B5
:10399C004FF001084FF0300AE2684FF00009019235
:1039AC002A4616490AFB0818A8F10408019909F1DE
:1039BC000109494558F829A017DC02F1040898FBC5
:1039CC00FEF9C9EBC909A8EB0909B3EB090923698D
:1039DC0048BF09F10709013BC3EBC3034B445345F3
:1039EC0005DA1A44ADE7E046D4E75244DEE7073B7C
:1039FC00F5E70020BEE700BF80510100FC430A0838
:103A0C00014800F0E9BA00BF270D0020014800F082
:103A1C00E5BA00BF270D0020014B186800F002B872
:103A2C00140000202DE9F04F8DB0074600F020FA6D
:103A3C00B0490546384600F013FAAF4E044670B94B
:103A4C00AE4BAF4A1860AF4B1860AF4B3068C3E950
:103A5C000022FDF7D1FB34600DB0BDE8F08F31686A
:103A6C0000295FD13068FDF7C7FB2046FFF77FFECA
:103A7C00411C3846FDF7E8FB3060002857D123780D
:103A8C000AAE3A2B08BF0134334620469F4AA04960
:103A9C00FDF7CAFB0028DFDD0A9BE718E35C2D2B42
:103AAC0049D14FF0FF3401374FF000080DF1200AD7
:103ABC000DF11E0B33463846CDE9016A9549039644
:103ACC00CDF800B007AAADF81E80ADF82080FDF748
:103ADC00ABFB4045C0DD3C21BDF81E30BDF82020BD
:103AEC00DFF83C9201FB03224FF46161BDF81C30FE
:103AFC0001FB03235C43854BAC62834C4A46236039
:103B0C000A9B83491F4438463346FDF78DFB4045DD
:103B1C0017DC2368AA6A6360784B1A60794BC3F888
:103B2C00008099E7FFF7F6FD00289BD194E721462A
:103B3C00FFF7FAFDA3E72B2B4FF0010408BF013769
:103B4C00B2E70A9BC4F80490FC18FB5C2D2B40F0E8
:103B5C008C804FF0FF37013400232046ADF81C3029
:103B6C00ADF81E30ADF820300A93CDE902A63346ED
:103B7C00CDE900B6674907AAFDF756FB00287ADCA9
:103B8C00AF6AA7F561672F654FF000092F460A9BB6
:103B9C001C4423782C2B08BF013494F80080B8F116
:103BAC004D0F7AD10DF12603CDE9016309AB0093DA
:103BBC0020463346584903960DF12202FDF734FB9B
:103BCC0003287FF449AFBDF822104B1E0B2B3FF698
:103BDC0043AFBDF82420531E042B3FF63DAFBDF878
:103BEC002630062B3FF638AFC7E9031287F808805A
:103BFC007B610A9B04EB03080223ADF81C30002305
:103C0C00ADF81E30ADF820300A9398F800302F2B09
:103C1C0009D133464046CDE902A6CDE900B63F496D
:103C2C0007AAFDF701FB3C21BDF81E30BDF8202092
:103C3C00283701FB03224FF46161BDF81C3001FBF6
:103C4C00032347F8103C0A9C4444B9F1000F21D0DF
:103C5C006868FFF72DFEAA6A284B1A602B6D9B1A19
:103C6C0018BF0123274A1360F6E62B2B4FF00107F0
:103C7C0008BF013470E73C21BDF81E30BDF8202090
:103C8C0001FB03224FF46161BDF81C3001FB0323DF
:103C9C005F4378E74FF001097BE7B8F14A0F0ABFA1
:103CAC004346442301340A2220460BA90593FFF70F
:103CBC00F5FDDDF82C80059BA045ADF8260014D150
:103CCC004D23B9F1000F07D103212B720223C5F844
:103CDC001490C5E903138FE70B2285F830300123CC
:103CEC00C5E90D230023EB6386E780B23B72786154
:103CFC0082E700BF5C440A08800C0020880C00207E
:103D0C005F440A08840C002078000020730C00200B
:103D1C0063440A0886440A0872440A0885440A085F
:103D2C00680C00202DE9F843DFF8BC800646D8F873
:103D3C0000001F460D46914600F04FF9264B1C68BB
:103D4C0034B9264C1C60264B13B11B68C4F8883060
:103D5C0063681F2B07DDD8F8000000F040F94FF026
:103D6C00FF30BDE8F8835EB3D4F8880088B91D4BEA
:103D7C0023B9D8F8000000F031F9F0E74FF4847063
:103D8C00FDF732FA0028F4D00023C0E94033C4F820
:103D9C00880001226368022E40F8239002FA03F295
:103DAC0000EB8301D0F8003143EA0203C0F8003184
:103DBC00C1F8807002BFD0F804311A43C0F8042156
:103DCC006368D8F800005A1C0233626044F8235030
:103DDC0000F005F90020C4E7180D00208C0C002021
:103DEC0000000000F5110A08800000202DE9F84FB2
:103DFC0007468946164600F0F3F8184B1C689A469D
:103E0C0034B14B46984613F8011B39B13D29F9D111
:103E1C00384600F0EBF80020BDE8F88FA8EB090855
:103E2C00A34654F8040B0028F2D042464946FFF74B
:103E3C00A6FC0028F4D154F8043C03EB080513F855
:103E4C0008303D2BECD1DAF800303846ABEB0303ED
:103E5C009B10336000F0CAF8681CDDE7E00000201E
:103E6C0007B501AAFFF7C2FF03B05DF804FB000021
:103E7C0000487047880000202DE9F041D0E9006728
:103E8C000C460023304639464F4A00F0B5F8394607
:103E9C000546002330464C4A00F0AEF84FF4616101
:103EAC00002ABCBF02F5A83202F5C072B2FBF1F3D6
:103EBC0001FB13224FF03C01A360B2FBF1F301FBB9
:103ECC00132222604FF0070205F52F20ACBF00F63D
:103EDC006C2000F66B206360C31C93FBF2F2C2EB08
:103EEC00C2029B1A48BF073300283849A361BDBFE3
:103EFC00A0F50E33A3F52C7393FBF1F190FBF1F1CC
:103F0C0048F6AC6240F2B45C314B40F26D1703FBE7
:103F1C000100B0FBF2F2B0FBFCF30244D21A2D4BC1
:103F2C006426B0FBF3F3D31AB3FBF7F5B3FBFCF346
:103F3C00B5FBF6F2D31A0344992007FB153303EBB8
:103F4C00830C0CF1020CBCFBF0F74FF00508784326
:103F5C000230B0FBF8F003F1010EAEEB000040F2C2
:103F6C00F95EF44594BF4FF0020C6FF0090C6744F6
:103F7C004FF4C87C0CFB0151012F98BF0131B3F5F4
:103F8C00997F0CD3A3F59973E3610023A1F26C71B3
:103F9C00E060C4E9047120462362BDE8F08115F0AD
:103FAC00030F02D106FB12525AB94FF4C876B5FB77
:103FBC00F6F206FB1252B2FA82F252093B33134468
:103FCC00E2E70122FAE700BF80510100B13A02009A
:103FDC004FC5FDFFB03A02007047704770477047FD
:103FEC000148FFF7FABF00BF260D00200148FFF77C
:103FFC00F6BF00BF260D00207BB972B90029BEBFE9
:10400C0000204FF0004106E008BF00281CBF6FF0F5
:10401C0000414FF0FF30FFF70BBAADF1080C6DE922
:10402C0004CE002909DB002B1ADBFFF79FF8DDF823
:10403C0004E0DDE9022304B07047404261EB41012A
:10404C00002B1BDBFFF792F8DDF804E0DDE902231F
:10405C0004B0404261EB4101524263EB43037047B1
:10406C00524263EB4303FFF781F8DDF804E0DDE92E
:10407C00022304B0404261EB41017047524263EBB2
:10408C004303FFF773F8DDF804E0DDE9022304B025
:10409C00524263EB430370471D000A085D000A0897
:1040AC0085000A0889000A08000000004D415833B9
:1040BC003031303520776173206E6F7420666F75E8
:1040CC006E642E20506C6561736520636865636B4C
:1040DC0020776972696E672F706F7765722E004159
:1040EC0074746163682073656E736F7220746F20D3
:1040FC0066696E6765722077697468207275626292
:10410C0065722062616E6420746F20426567696E0F
:10411C002100204E6F2066696E6765723F0046690C
:10412C006E676572204465746563746564202D2D1B
:10413C0020496E697469616C697A696E67002E2E0C
:10414C002E0048523D20002042504D002C20535050
:10415C004F323D200025007B202274696D65223A88
:10416C0020002C2022686561727452617465223AB9
:10417C0020002C20002273706F32223A20007D0028
:10418C0064617461456E747279005F5F5F6060603A
:10419C0061616161616262626262636363636363F2
:1041AC0063636464646464646464646464646464C5
:1041BC0064646464646463636363636363636262BF
:1041CC006262626261616161606060605F5F5F5EDC
:1041DC005E5E5D5D5D5C5C5C5B5B5A5A595959581F
:1041EC005857575656555554545352525151505086
:1041FC004F4E4E4D4C4C4B4A4A4948484746454514
:10420C004443424241403F3E3E3D3C3B3A393838C4
:10421C0037363534333231302F2E2D2C2B2A29289A
:10422C00272625242322211F1E1D1C1B1A19171695
:10423C0015141311100F0E0C0B0A090706050302B7
:10424C00010000000000000000000000A3120A089A
:10425C00A9120A08F9120A08B7120A08A5120A08C4
:10426C00000000000000000049180A0893180A0812
:10427C006B180A084B180A0873180A087B180A08E6
:10428C0083180A088B180A080000000000000000C0
:10429C005D190A084D190A084F190A086170700057
:1042AC000000000000000000251A0A082F1A0A0856
:1042BC00391A0A08431A0A084D1A0A08591A0A0820
:1042CC00651A0A086D1A0A08751A0A08811A0A086A
:1042DC00891A0A08931A0A089D1A0A0825592D25C5
:1042EC006D2D25645425483A254D3A2553257A00E1
:1042FC0061736374696D65000000000000000000CC
:10430C00F11E0A085B1F0A08371F0A08011B0A085E
:10431C00071F0A08231F0A08151F0A08311F0A085D
:10432C00F31E0A08F91E0A08000000000000000035
:10433C00E31F0A0849200A0821200A08011B0A0861
:10434C0013200A08E51F0A08F51F0A0843200A086B
:10435C0005200A08DD1F0A0800000000000000000C
:10436C0013220A0809220A08FF210A0871210A08E7
:10437C00F3210A08E7210A08651A0A086D1A0A08C7
:10438C00DB210A08D3210A08C9210A08BF210A081F
:10439C007B210A0800252E337320252E33732533F9
:1043AC006420252E32643A252E32643A252E32644E
:1043BC002025640A0053756E4D6F6E5475655765F4
:1043CC00645468754672695361744A616E466562DD
:1043DC004D61724170724D61794A756E4A756C41CE
:1043EC0075675365704F63744E6F76446563000058
:1043FC001F0000001C0000001F0000001E00000039
:10440C001F0000001E0000001F0000001F00000025
:10441C001E0000001F0000001E0000001F00000016
:10442C001F0000001D0000001F0000001E00000007
:10443C001F0000001E0000001F0000001F000000F5
:10444C001E0000001F0000001E0000001F000000E6
:10445C00545A00474D54002531305B5E302D392CB9
:10446C002B2D5D256E004D256875256E2E256875E6
:10447C00256E2E256875256E002F256875256E3ADC
:10448C00256875256E3A256875256E00002020205C
:10449C0020202020202028282828282020202020E8
:1044AC0020202020202020202020202020881010B8
:1044BC001010101010101010101010101004040414
:1044CC0004040404040404101010101010104141D2
:1044DC0041414141010101010101010101010101C0
:1044EC0001010101010101011010101010104242D4
:1044FC004242424202020202020202020202020290
:10450C00020202020202020210101010200000002F
:10451C00000000000000000000000000000000008F
:10452C00000000000000000000000000000000007F
:10453C00000000000000000000000000000000006F
:10454C00000000000000000000000000000000005F
:10455C00000000000000000000000000000000004F
:10456C00000000000000000000000000000000003F
:10457C00000000000000000000000000000000002F
:10458C00000000000000000000000000000000001F
:10459C00E5040A08151A0A08ED1A0A08C51B0A08C8
:1045AC00951D0A08DD1E0A081D220A087D250A0829
:0445BC0000000000FB
:0845C000B8EBFF7F01000000D1
:0445C80000000000EF
:1045CC000200000006000000050000000A000000C8
:1045DC00FC420A0818000020000000000000000047
:1045EC0000000000000000000000000000000000BF
:1045FC0000000000000000000000000000000000AF
:10460C00000000000000000000000000000000009E
:10461C00000000000000000000000000000000008E
:10462C00000000000000000000000000000000007E
:10463C0000000000000000005F440A085F440A0804
:10464C00210D00200000000001000000000000000F
:10465C004A00000000000000000000000000000004
:10466C00000000000000000000000000000000003E
:10467C0000000000000000004A00000000000000E4
:10468C00000000000000000000000000000000001E
:10469C00000000000000000000000000000000000E
:0446AC001C0D0020C1
:1046B000FFFFFFFF00000102030405060708090AC7
:1046C0000B0C0D0E0F101112131415161718191AC2
:0846D0001B1C1D1E1F20280009
:0446D80078563412CA
:04000005080A001CC9
:00000001FF
