:02000004080AE8
:1000000000000A0858290A08000006000600050139
:0800100004029A080000000040
:0400180098250A0815
:10001C0009480A4908B5884205D0094A824202D0EB
:10002C00121A02F0E4F90748074A0021121A02F0EA
:10003C00ECF9064808BD00BF00000020B4280A08EF
:10004C007C0000207C000020850C0020850C00200A
:10005C0070B502F0B9F80025054E064CA41BA40897
:10006C00A54200D170BD56F8043B98470135F7E71F
:10007C0084280A08A4280A0800F02AB808B500F059
:10008C0077F8BDE8084002F057B801F05FB801F00E
:10009C005DB801F063B80078B0FA80F040097047A1
:1000AC00012303707047F8B50C1E074616460CDA90
:1000BC000A2A0AD12D2101F0E5FC05466142384699
:1000CC00F2B201F0FEFC2844F8BD21460025F6E70B
:1000DC001FB501F0F9FE4FF4E13101F0DBFE1C4BD2
:1000EC000121188802F0ECF81A4B0121188802F053
:1000FC00E7F8194B0121188802F0E2F8174B01219F
:10010C00188802F0DDF802F01FF957230146144A53
:10011C00144800F0E9FA28B901F0D6FE124901F0B2
:10012C00CEFCFEE701F0D0FE104901F0C8FC40F215
:10013C009B134FF48052CDE90132642304220093C7
:10014C003C210223074800F08EFB05B05DF804FB50
:10015C000800002004000020000000200C000020FB
:10016C00801A06001C020020AC250A08DF250A08AC
:10017C002DE9F04FAF4895B000F09EFA4CF24F339A
:10018C009842AD4FAD4E38D80025AD4C2946388835
:10019C00256002F0A6F8AB4B2946188802F0A1F8AE
:1001AC0001F092FEA84901F080FC4FF00109DFF844
:1001BC0084A2DFF8E4822568E5B90121308802F0D9
:1001CC0090F8C82000F0F2FF2946308802F089F838
:1001DC00C82000F0EBFF504600F06EFA4CF24F33A3
:1001EC009842E8D9C4F8009001F06EFE414601F047
:1001FC005CFCE0E70022954B1A706423944C0121BF
:10020C003888236002F06DF80021308802F069F81C
:10021C008E4B1D789846002D62D18E4F0121388867
:10022C0002F05FF801F050FE8B4901F03EFC814E6C
:10023C00DFF838B2DFF838A223685FFA85F9994500
:10024C0016DA304600F035F918B9304600F073F97B
:10025C00F7E7304600F024FA4BF82900304600F05E
:10026C002BFA4AF82900304600F030F90135E3E763
:10027C0001230021388888F8003002F032F8774BDF
:10028C00774E0293774B784D009301962B46774A25
:10029C002168774800F04CFC01F016FE754901F01E
:1002AC00F4FB01F011FE0A223168FFF7FCFE01F0AD
:1002BC000BFE714901F0E9FB01F006FE6F4901F0FC
:1002CC00E4FB01F001FE0A222968FFF7ECFE01F0C5
:1002DC00FBFD6B4901F0D9FB01F0F6FD01F0D9FBF8
:1002EC00584B0121188801F0FCFF6049604A4B23F0
:1002FC0088461746486E013B41F8040B506E13F0CC
:10030C00FF0342F8040BF5D14B254A4E304600F062
:10031C00D0F818B9304600F00EF9F7E7304600F087
:10032C00BFF948F82500304600F0C6F947F825001B
:10033C003046013500F0CAF8642DE7D1474B484EE2
:10034C000293484B484D009301962B46474A21682F
:10035C00474800F0EDFB01F0B7FD464901F095FB75
:10036C0001F0B2FD0A223168FFF79DFE01F0ACFDF1
:10037C00414901F08AFB01F0A7FD404901F085FBE2
:10038C0001F0A2FD0A222968FFF78DFE01F09CFD09
:10039C003B4901F07AFB01F097FD01F07AFB0A2250
:1003AC00316804A801F047FC0A22296808A801F06A
:1003BC0042FC344910A801F000FC04A910A801F07B
:1003CC0064FC314901F06DFC304901F06AFC08A96C
:1003DC0001F05BFC01460CA801F011FC10A801F027
:1003EC00A2FB2B4B0C9A1B782A498DF8003010A8D5
:1003FC003C2301F04FF8119C7CB16368013B6360B6
:10040C005BB9236820469B689847A368013BA360AF
:10041C001BB923682046DB6898470CA801F083FBC6
:10042C0008A801F080FB04A801F07DFB15B0BDE825
:10043C00F08F00BF1C0200200400002008000020E8
:10044C00840000200000002012260A085802002018
:10045C00800000200C0000203E260A08F00300203B
:10046C0088000020F1030020EC0300205C02002037
:10047C008C00002042260A0847260A084C260A0847
:10048C0055260A0857260A0862260A0865260A080D
:10049C007C0000206B260A081E260A080122024B4B
:1004AC0002481A7000F004B87C0000201C020020E6
:1004BC00704790F8383090F83900181AC3B240B22F
:1004CC000028BCBF181D40B2C0B2704708B5024628
:1004DC00FFF7EFFF30B192F83930013303F003032B
:1004EC0082F8393008BD70B5044616460D460068D2
:1004FC0001F0BAF92068314603689B6898470021DF
:10050C00206801F0B8F901222946206801F0A9F908
:10051C00206803681B69984720B1206803685B69F1
:10052C009847C0B270BD04220179FFF7DCBF0622E8
:10053C000179FFF7D8BF2DE9F7430446FFF7F7FF22
:10054C0006462046FFF7EFFF864200F08E80861BA2
:10055C004FF05701206848BF2036677901F088F9C1
:10056C002068072103684FF020089B689847206893
:10057C0001F085F94FF00009774307EB4707002F8F
:10058C0074DD202FC9BF65793D4605EB4505B8FBE9
:10059C00F5F2C8BF554357212A4620687F1B01F04E
:1005AC0060F9002DEBDD94F838302068013303F04E
:1005BC00030384F8383003688DF807905B6998471B
:1005CC008DF80600206803685B6998478DF8050074
:1005DC00206803685B6998478DF8040094F83830FC
:1005EC00019A0233C2F3110244F823206379012BE0
:1005FC0019D9206803685B6998478DF80600206854
:10060C0003685B6998478DF80500206803685B698F
:10061C0098478DF8040094F83830019A0633C2F3E9
:10062C00110244F823206379022B19D9206803683E
:10063C005B6998478DF80600206803685B699847EA
:10064C008DF80500206803685B6998478DF80400F5
:10065C0094F83830019A0A33C2F3110244F823207B
:10066C006379A3EB83031D449BE70026B0B203B070
:10067C00BDE8F08370B505460E4600F0A7FB0446B6
:10068C0000F0A4FB001BB04208D82846FFF753FF2C
:10069C00012804D0012000F089FDF1E7002070BD95
:1006AC0010B5FA210446FFF7E5FF20B194F8383075
:1006BC00023354F8230010BD10B5FA210446FFF79D
:1006CC00D9FF20B194F83830063354F8230010BD0C
:1006DC00FF220179FFF707BF10B5FE22017904460E
:1006EC00FFF701FFA07110BD70B5044616461D46FC
:1006FC000846216001F086F83146206801F07EF84A
:10070C0020462571FFF7E4FF152804D12046FFF79A
:10071C00E3FF012070BD0020FCE770B504461646CF
:10072C001D46006801F0A0F82068314603689B68FC
:10073C0098472068294603689B6898472068BDE85D
:10074C00704001F09CB80B460C220179FFF7E5BF15
:10075C000B460D220179FFF7E0BF0B460E22017903
:10076C00FFF7DBBF0B4610220179FFF7D6BF10B5A0
:10077C000446017900230422FFF7CFFF204621799C
:10078C0000230522FFF7C9FF204621790023BDE88D
:10079C0010400622FFF7C1BF2DE9F0410D46174668
:1007AC000A46017904461E46FFF79DFE00EA070340
:1007BC002A46204621793343BDE8F041FFF7ADBF0F
:1007CC0038B5BF22402309210446FFF7E5FF00F0AE
:1007DC00FDFA054600F0FAFA401B63280AD80922F4
:1007EC0020462179FFF77FFE430603D5012000F058
:1007FC00DDFCEFE738BD0B46F8220921FFF7CCBF33
:10080C000B469F220A21FFF7C7BF0B46E3220A21A2
:10081C00FFF7C2BF0B46FC220A21FFF7BDBF0B46F8
:10082C001F220821FFF7B8BF1023EF220821FFF782
:10083C00B3BF01391346032914D8DFE801F00206CF
:10084C000B0EF8221121FFF7A7BF1B018F2203F01B
:10085C00F003F7E7F8221221F5E71B018F2203F0D2
:10086C00F003F8E770472DE9F0471546DDE9087904
:10087C00044688461E46DDF828A0FFF7A1FF012D8F
:10088C004AD100212046FFF7CAFF2046FFF7CCFFD4
:10089C00032E55D107212046FFF7ADFFBAF5805F37
:1008AC00667152DA00212046FFF7AAFF632F59DC4C
:1008BC0000212046FFF7A9FFB9F1750F72DC00216A
:1008CC002046FFF7A7FF41462046FFF73CFF414675
:1008DC002046FFF73DFF41462046FFF73EFF4146CD
:1008EC002046FFF73FFF012220461146FFF7A1FFEC
:1008FC00012E0CD920238F2211212046FFF74CFF0B
:10090C00022E04D0032220461146FFF792FF204608
:10091C00BDE8F047FFF72BBF022D01D12021B1E735
:10092C00042D01D14021ADE7082D01D16021A9E7AB
:10093C00102D01D18021A5E7202DF3D1A021A1E715
:10094C00022E0CBF03210221A5E7BAF5005F01DAE4
:10095C002021A8E7BAF5804F01DA4021A3E7A1D105
:10096C006021A0E7C72F01DC0421A2E7B7F5C87FFF
:10097C0001DA08219DE7B7F5487F01DA0C2198E7E9
:10098C00B7F57A7F01DA102193E7B7F5C86F01DA72
:10099C0014218EE7B7F5486F01DA182189E787D162
:1009AC001C2186E7B9F1D60F01DC012188E7B9F5E6
:1009BC00CD7F01DC022183E740F29B1399457FF444
:1009CC007EAF03217CE7844600202DE9F041012411
:1009DC00086003F1FF38A04526DD069D52F824007F
:1009EC00A600A84204F101051CDD164456F8046C5F
:1009FC00B04217DD2E469E42354652F82670A6EBC5
:100A0C00040E03D0B84206F10106F4D0B84209DD59
:100A1C0008680E2806DC451C0D600EF101054CF82B
:100A2C00204025442C46D6E7BDE8F081F0B50123E3
:100A3C0004468B420FDA54F8046F1A46254655F8D3
:100A4C00047CB74203DD013A45F80479F7D140F84C
:100A5C0022600133EDE7F0BD2DE9F0430123904610
:100A6C000D46434516DA55F8046F1C46AC4600EBB0
:100A7C008609D9F800205CF8047C964650F82720AB
:100A8C00964503DD013C4CF80479F2D141F8246021
:100A9C000133E6E7BDE8F0832DE9F04104461E463C
:100AAC0010460D460A682146FFF7D6FF4FF0FF327D
:100ABC00271FC6F100082968944691421FDD0132B8
:100ACC0010462A60814201D10437F4E7BCF1FF3FA4
:100ADC000CBFE646D7F800E054F82030A3EB0E0329
:100AEC00B34201DC984508DDD5F800E00EF10103B6
:100AFC002B6054F8203044F82E300130E2E72046C9
:100B0C00BDE8F041FFF792BFF7B50546089F0C46CC
:100B1C000097FFF758FF099B2846FFF7BDFF226897
:100B2C000A9B9A42D4BF2260236003B0F0BD000040
:100B3C002DE9F04F174600229B4605460C461346FE
:100B4C009FB0DDF8A890A24204DA55F822100132C9
:100B5C000B44F8E7DFF83482B3FBF4F34046002291
:100B6C00A24206DA55F822100132591A40F8041B39
:100B7C00F6E70021854A136852F8040F013103444B
:100B8C005068034490681B1848BF03339B106029BE
:100B9C0042F8043CEFD100231A467C4951F8040B6F
:100BAC000132642A0344F9D140F6B7318B424BDD54
:100BBC0093FBF2F33C2BA8BF3C2300220FAE314633
:100BCC00924601320F2A41F804ABFAD10292042268
:100BDC003046CDE9003209A964236C4AFFF794FF33
:100BEC00099B012B32DDB646002201207146DEF84E
:100BFC0004C009680130ACEB010C83420EF1040E09
:100C0C006244F3D1591E92FBF1F240F2DC5191FB9C
:100C1C00F2F229990A60012289F8002000225C482E
:100C2C00A24219DB0022CDE90A22CDE90C220E9258
:100C3C000FA993421CDD51F82200642816DD554B98
:100C4C00CBF80030002397E01E23B6E7514A2999D0
:100C5C000A6089F800A0E1E755F8221048F8041B57
:100C6C0057F82210013240F8041BD9E70132E0E7B3
:100C7C00002007460146013BDFF810C1DFF810E108
:100C8C0005900793079B059A934259DD1346013350
:100C9C00D6F80480059356F8043BA8EB0309B9F188
:100CAC00030FEFDD4FF07F421D460692A84510DD85
:100CBC005CF825A0069C9245C8BF52465EF825A05C
:100CCC00C8BF2846A245C4BF2F46CDF818A0013591
:100CDC00ECE75CF828405CF82350A4EB050AC51A35
:100CEC0005FB0AF595FBF9FA5CF82350069CAA441F
:100CFC005CF82750A5EB0A0A04FB0AF4E411002C5B
:100D0C00C0DD0429BEDC5EF823505EF82880FB1A97
:100D1C00A8EB050803FB08F393FBF9F32B445EF8EF
:100D2C002750ED1A6A43D211ACD01EAB03EB8108ED
:100D3C0064235A4392FBF4F4013148F8504CA1E778
:100D4C000AA8FFF773FE4A1003294FEA820318DD45
:100D5C001EA901EB820151F8543C51F8502C13445C
:100D6C0003EBD3735B10DA1EB42A3FF668AF0A4A62
:100D7C00D35CCBF800300123289A13701FB0BDE868
:100D8C00F08F1EAA134453F8503CECE7F4030020F8
:100D9C008405002019FCFFFF75260A0808B5024BD4
:100DAC001B685B6C019308BDD001060808B5024BAB
:100DBC001B689B6C019308BDD001060808B5024B5B
:100DCC001B685B68019308BD9C01060808B5024BC3
:100DDC001B685B69019308BD9C01060808B5024BB2
:100DEC001B689B68019308BDB001060808B5024B4F
:100DFC001B68DB68019308BDB001060808B5024BFF
:100E0C001B681B69019308BDB001060808B5024BAD
:100E1C001B681B6C019308BDAC01060808B5024B9E
:100E2C001B68DB6C019308BDAC01060808B5024BCE
:100E3C001B689B6D019308BDAC01060808B5024BFD
:100E4C001B68DB6D019308BDAC01060808B5024BAD
:100E5C001B681B6E019308BDAC01060808B5024B5C
:100E6C001B685B6E019308BDAC01060808B5024B0C
:100E7C001B689B6E019308BDAC01060808B5024BBC
:100E8C001B68DB6E019308BDAC01060808B5024B6C
:100E9C001B681B6F019308BDAC01060808B5024B1B
:100EAC001B685B6F019308BDAC01060808B5034BCA
:100EBC001B68D3F88030019308BD0000AC01060814
:100ECC0008B5034B1B68D3F89030019308BD0000A4
:100EDC00AC01060808B5024B1B68DB69019308BD21
:100EEC00B401060808B5024B1B681B6A019308BDC8
:100EFC00B401060808B5024B1B689B69019308BD39
:100F0C00C401060808B5024B1B685B6A019308BD57
:100F1C00C401060808B5024B1B689B6A019308BD07
:100F2C00C401060808B5024B1B68DB6A019308BDB7
:100F3C00C401060808B5024B1B681B6B019308BD66
:100F4C00C401060808B5024B1B685B6B019308BD16
:100F5C00C401060808B5024B1B689B6B019308BDC6
:100F6C00C401060808B5024B1B681B6C019308BD35
:100F7C00C401060808B5024B1B681B68019308BD29
:100F8C00D801060808B5024B1B685B68019308BDC5
:100F9C00D801060808B5024B1B681B69019308BDF4
:100FAC00D801060808B5024B1B685B69019308BDA4
:100FBC00D801060808B5024B1B689B69019308BD54
:100FCC00D801060808B5024B1B68DB69019308BD04
:100FDC00D801060808B5024B1B681B6A019308BDB3
:100FEC00D801060808B5024B1B689B6C019308BD21
:100FFC00C001060808B5024B1B685B68019308BD6D
:10100C00A401060808B5024B1B685B69019308BD77
:10101C00A401060808B5024B1B68DB6C019308BDE4
:10102C00A401060808B5024B1B685B6D019308BD53
:10103C00A401060808B5034B1B68D3F89030019344
:10104C0008BD0000A401060808B5034B1B68D3F8C3
:10105C009C30019308BD0000A401060808B5024BA2
:10106C001B685B69019308BDCC01060808B5024BEF
:10107C001B681B6A019308BDCC01060808B5024B1E
:10108C001B68DB6B019308BDCC01060808B5024B4D
:10109C001B685B68019308BDC801060808B5024BC4
:1010AC001B689B68019308BDC801060808B5024B74
:1010BC001B68DB68019308BDC801060808B5024B24
:1010CC001B681B69019308BDC801060808B5024BD3
:1010DC001B685B69019308BDC801060808B5024B83
:1010EC001B689B69019308BDC801060808B5024B33
:1010FC001B68DB69019308BDC801060808B5024BE3
:10110C001B681B6A019308BDC801060808B5024B91
:10111C001B681B6B019308BDC801060808B5024B80
:10112C001B685B6B019308BDC801060808B5024B30
:10113C001B681B6C019308BDC801060808B5024B5F
:10114C001B685B6C019308BDC801060808B5024B0F
:10115C001B681B68019308BDA001060808B5024B6B
:10116C001B685B68019308BDA001060808B5024B1B
:10117C001B689B68019308BDA001060808B5024BCB
:10118C001B68DB6A019308BDA001060808B5024B79
:10119C001B681B6B019308BDA001060808B5024B28
:1011AC001B685B6C019308BDA00106080021FFF7CA
:1011BC0029BF10B5836804460BB901F0FBF8C3686E
:1011CC009847A3681BB10322214620469847204626
:1011DC00BDE81040102101F0E9B8704700207047BD
:1011EC0010B50446102101F0E1F8204610BD08B5F9
:1011FC00FFF7F6FF08BD10B58368044613B1032250
:10120C0001469847204610BD002230B54FF69C741D
:10121C00026084808D888C800C68858004600A60F4
:10122C0030BD10B504460068FFF798FF204610BD8E
:10123C0038B5C468F4B12378022B03D104F10C0047
:10124C00FFF7EFFF656835B12846FFF7D4FF102193
:10125C00284601F0ABF8A56835B12846FFF7CBFF5F
:10126C001021284601F0A2F82046BDE83840142190
:10127C0001F09CB838BD38B5046805467CB163688C
:10128C00013B63605BB9236820469B689847A36861
:10129C00013BA3601BB923682046DB6898472846AE
:1012AC0038BD0B68036013B15A6801325A6070473D
:1012BC0073B50E46044656F8043B0D4601A831465C
:1012CC000093FFF7EEFF009B019A236000236260FE
:1012DC0001A801930093FFF7CEFF3046FFF7CBFF39
:1012EC002846082101F062F8204602B070BD13B503
:1012FC006C460B46024603C884E8030093E80300DF
:10130C0082E8030094E8030083E8030002B010BDF8
:10131C00826810B50AB901F04DF8C368BDE81040F9
:10132C00184708B5006800F11001FFF7F1FF08BD80
:10133C00826810B50AB901F03DF8C368BDE81040E9
:10134C00184708B5006800F11001FFF7F1FF08BD60
:10135C0038B500230446036010200D46FEF795FEB9
:10136C0028B10123C0E90133024BC5600360206042
:10137C00204638BD38270A0838B5002383608B68AF
:10138C0004460D462BB102229847EB68E360AB682C
:10139C00A360204638BD0000F0B589B004686846EB
:1013AC00FFF732FF4FF00203D4E84F2F002A03D18E
:1013BC00C4E8413F0029F7D125D104F10C05694659
:1013CC002846FFF721FF0123BFF35B8F63700020DA
:1013DC00BFF35B8F04F1080353E8006F43E800028E
:1013EC00002AF9D1BFF35B8F6EB1FFF713FE78B112
:1013FC0029463046FFF78CFF3046FFF7FCFE1021E4
:10140C00304600F0D3FF6846FFF70BFF09B0F0BD84
:10141C00314602A8FFF7B0FFE068B4F9105008B1EC
:10142C0001F028F806901020ADF81C50FEF72DFEA8
:10143C000546E8B1002787601820FEF726FE044613
:10144C0088B10146876002A8FFF751FF049BA26890
:10145C00A360059B0492E26806A9E36004F1100006
:10146C000592FFF7D1FE084B2C60EB60074BAB608D
:10147C0006A8FFF7D6FE02A8FFF7BDFE00222946FC
:10148C000348FFF7CFFDB7E72F130A08C5150A0865
:10149C00BF110A082DE9F0478AB005460C461746DD
:1014AC0098469DF84890FFF7D9FD07AE824638BBA9
:1014BC004FF62E73059005A93046ADF81830FFF79E
:1014CC00A3FE1420FEF7E1FD044648B1022303708D
:1014DC000123C0E901AA437031460C30FFF794FE9A
:1014EC002846214640F8044BFFF732FF3046FFF701
:1014FC0098FE05A8FFF795FE28460AB0BDE8F087D0
:10150C000C234FF0000A1420CDE908AA0793FEF72C
:10151C00BCFD014628B1C0E901AA80F800A080F802
:10152C0001A004A80391FFF713FF224B0820089396
:10153C00FEF7ABFD824628B1039B04A940F8043B9F
:10154C00FFF7AFFE42463946204600965FFA89F314
:10155C00CDF824A0FFF78AFDB8B9039B5B7803F0A4
:10156C00FF0293B94FF69C7305A903A80592ADF839
:10157C001830FFF711FF05A8FFF753FE05A80999CE
:10158C00FFF796FE06A8FFF776FE039B04A906A8B4
:10159C000593FFF786FE059B069A2B6000236A6075
:1015AC0006A806930593FFF766FE04A8FFF763FEF3
:1015BC00A2E700BF89160A08022AF8B5054607D02B
:1015CC00032A18D0012A01D10B6803600020F8BD52
:1015DC0018200E68FEF759FD044650B13146FFF74E
:1015EC00CBFE3069B6F9147008B100F043FF2061EE
:1015FC00A7822C60EAE70468002CE7D004F1100005
:10160C00FFF70FFE2046FFF7F6FD1821204600F0ED
:10161C00CDFEDBE738B5002383608B6804460D46AE
:10162C002BB102229847EB68E360AB68A3602046BD
:10163C0038BD022A70B5044607D0032A12D0012AFD
:10164C0001D10B680360002070BD14200E68FEF7FA
:10165C001CFD054620B13146FFF7DCFF337C2B74B3
:10166C002560F0E70468002CEDD02046FFF7C3FDA1
:10167C001421204600F09AFEE5E70000F0B5044680
:10168C0089B00D4601A81146FFF712FEA4B124B291
:10169C001DB1284600F0EEFE054601A803A90395EE
:1016AC00ADF81040FFF778FE03A8FFF7BAFD02A8CB
:1016BC00FFF7E1FD09B0F0BD0123019DD5E84F2FE7
:1016CC00002A03D1C5E8413F0029F7D1EFD12B7394
:1016DC00BFF35B8F6B70BFF35B8F2B1D53E8006FF9
:1016EC0043E80042002AF9D1BFF35B8F002EDED015
:1016FC002046FFF78FFC074660B1304605F10C0120
:10170C00FFF716FE3046FFF776FD1021304600F04D
:10171C004DFECCE7314603A8FFF77CFF2B7B102056
:10172C008DF81C30FEF7B1FC0546D0B18760142053
:10173C00FEF7ABFC044678B10146876003A8FFF7BF
:10174C00D6FD059BA268A360069B0592E268E36048
:10175C009DF81C3006922374064B2C60EB60064BF4
:10176C00AB6003A8FFF747FD002229460348FFF7AB
:10177C0059FCC7E74F130A083F160A08BF110A089D
:10178C007047F8B5064615460C468F18BC4206D075
:10179C00336830469B6814F8011B9847F6E72846D7
:1017AC00F8BD0022007CFFF751BB0021007CFFF745
:1017BC0055BB0021007CFFF759BB0021007CFFF7D3
:1017CC005DBB0021007CFFF761BB10B50446142102
:1017DC0000F0ECFD204610BD10B54FF47A730446B2
:1017EC0008460021C4E90113034B11462360207401
:1017FC00FFF75CFB204610BD54270A080022007C32
:10180C00FFF704BB0023007C1A461946FFF706BB02
:10181C007FB500221423CDE90122ADF804300B78FA
:10182C00007C8DF808304B680393CB6804930B7ADB
:10183C0001A90593FFF744FB07B05DF804FB1FB546
:10184C00003B8DF800104FF0640118BF0123039189
:10185C00694601928DF80830FFF7DAFF05B05DF8A4
:10186C0004FB0123FFF7EBBF0022007CFFF7DEBA7D
:10187C00C9B2FFF7F9BF0022007CFFF7DFBA0121E4
:10188C00FFF7F9BF704710B50446182100F08EFD24
:10189C00204610BDF8B50E46002400F10807051DC2
:1018AC0017F8011D0A22304600F00BF9AF42044430
:1018BC0001D12046F8BD002CF2D02E21304600F08C
:1018CC00E1F80444ECE7000010B50446044B112287
:1018DC00002140F8043B00F098FD204610BD00BFED
:1018EC007C270A080346074A10B543F8042B01F17C
:1018FC00100251F8044B914243F8044BF9D10A7889
:10190C001A7010BD7C270A08024AC0E90021042283
:10191C00027570477C270A0810B59DF8084044EA08
:10192C000324042344EA024444EA0164446003753A
:10193C0010BD000037B5044D05609DF8185000959A
:10194C00FFF7EAFF03B030BD7C270A08014B024ABF
:10195C001A6070471407002088270A080023406883
:10196C001A46FFF793BB002202214068FFF79EBB8B
:10197C00002240681146FFF791BB002240681146D7
:10198C00FFF79CBB002340681A461946FFF79EBB25
:10199C00002340681A461946FFF7A0BB0021406897
:1019AC00FFF7C4BB00214068FFF7C8BB00224068AA
:1019BC0081F00101FFF79ABB00224068FFF7A6BB3C
:1019CC00002240681146FFF7A9BB0022406811466F
:1019DC00FFF794BB70B515468EB0044608A8FFF708
:1019EC0073FF1122002103A800F00FFD00262846EA
:1019FC0000F05BFD0A4B009681B25B68284603AA97
:101A0C00FFF7F0FA30B131462046FFF77DFF204654
:101A1C000EB070BD204603A9FFF764FFF7E700BFC7
:101A2C00980B0020024B034A1A6000225A60704740
:101A3C001807002094270A08F8B506460D4600241E
:101A4C008F18BD420CD0336830469B6815F8011BCB
:101A5C009847031E01DB1C44F3E7002C08BF1C460F
:101A6C002046F8BD70B505460C46084649B100F055
:101A7C001CFD2B68024621462846BDE87040DB68F9
:101A8C00184770BD03689B68184708B5FFF7EAFF55
:101A9C0008BD38B50D210546FFF7F4FF0A210446B1
:101AAC002846FFF7EFFF204438BD38B50546FFF751
:101ABC00D9FF04462846FFF7ECFF204438BDFFF75A
:101ACC00F4BF0023012A98BF0A2230B58BB00C4614
:101ADC008DF8243009A92546B4FBF2F404FB12530B
:101AEC00DBB2092B94BF30333733DBB2AA4201F897
:101AFC00013DF0D9FFF7B6FF0BB030BD0022014B12
:101B0C009A6070472007002070B5002604460D46E9
:101B1C0040F8086FFFF742F928462570FFF7DAF90D
:101B2C002046666070BD10B504460068FFF716FBD2
:101B3C00204610BD10B50446006808B1FFF70EFB37
:101B4C000023C4E90133236010BD38B504460D46AB
:101B5C0000680131FFF70AFB10B1C4E90005012050
:101B6C0038BD10B50368044623B143688B4201D3DA
:101B7C00012010BD2046FFF7E8FF0028F9D0A3682C
:101B8C00002BF5D122681370F2E770B50E461146A2
:101B9C0004461546FFF7E5FF20B92046FFF7CAFFBC
:101BAC00204670BD2A4631462068A56000F01FFC17
:101BBC0000212268A368D154F2E738B5002304460B
:101BCC000D46C0E900338360037339B1084600F059
:101BDC006CFC294602462046FFF7D7FF204638BD4D
:101BEC00884210B50B46044604D0096821B19A68A6
:101BFC00FFF7CBFF204610BDFFF79CFFFAE7002351
:101C0C0010B50446C0E9003383600373FFF7E8FFA7
:101C1C00204610BD38B505460C4649B1084600F0C3
:101C2C0044FC214602462846FFF7AFFF284638BD44
:101C3C00FFF780FFFAE710B5002304468AB0C4E929
:101C4C000033A3602373084601A900F0FBF920467A
:101C5C0001A9FFF7DFFF20460AB010BD70B505469D
:101C6C000E4609B9002070BD6AB18468144421463F
:101C7C00FFF777FF0028F5D02868AB683146184489
:101C8C0000F0F0FBAC600120EDE710B58A68096844
:101C9C000446FFF7E3FF10B92046FFF74BFF204641
:101CAC0010BD38B504460D4621B92046FFF742FF5A
:101CBC00204638BD084600F0F8FB2946024620466F
:101CCC00FFF7CCFF0028F0D0F2E700000222002042
:101CDC00044B1A60044B054A1860988098719A60FE
:101CEC00FFF788B93C070020300700200000FFFFF9
:101CFC00024B1A68024B1A60704700BF100000209C
:101D0C0040070020704741747047704708B5007C4D
:101D1C00FFF728F920EAE07008BD08B5007CFFF752
:101D2C00F9F820EAE07008BD08B5007CFFF702F96D
:101D3C0040EAE07008BD08B5007CFFF7F3F840EA14
:101D4C00E07008BD007CFFF7FDB870B5467C04461A
:101D5C000D462EB12946207CBDE87040FFF7D2B865
:101D6C00007CFFF7FFF80028F4DC304670BD10B59E
:101D7C000446142100F01AFB204610BD4FF0000C55
:101D8C0010B50446084611464FF47A72C4E901C2F4
:101D9C00044A20742260012262741A46FFF7AAF8E2
:101DAC00204610BDEC270A0838B50C4D2978BFF336
:101DBC005B8F11F001040FD12846FEF76CF958B176
:101DCC002146074B074A0848FFF7D8FF2846FEF77D
:101DDC0067F9064800F0F1FA034838BD44070020C3
:101DEC00CC0700204807002050080020171D0A08C7
:101DFC00417470477047704708B50021007CFFF7AD
:101E0C00D9F840EAE07008BD08B50121007CFFF765
:101E1C00D1F840EAE07008BD08B5007CFFF7C2F8C5
:101E2C0020EAE07008BD08B5007CFFF7B3F820EAA3
:101E3C00E07008BD38B50446007C0D46FFF7B2F8DB
:101E4C00002801DC607C28B12946207CFFF7BAF819
:101E5C0020EAE07038BD007CFFF7BCB810B5044632
:101E6C00142100F0A3FA204610BD704710B54FF4B2
:101E7C007A73044608460021C4E90113044B20740C
:101E8C002360012311466374FFF774F8204610BDDC
:101E9C001C280A080022007CFFF774B810B5044611
:101EAC001422002100F0B1FA054B20466360054B6B
:101EBC00E36040F2011323818123238210BD00BF14
:101ECC00940800209509002030B50E4D87B001A86C
:101EDC00FFF7E4FF2978BFF35B8F11F001040ED1FB
:101EEC002846FEF7D8F850B1214601AA0648FFF75C
:101EFC00BDFF2846FEF7D4F8044800F05EFA02480D
:101F0C0007B030BD640800206C080020011E0A08D0
:101F1C0010B504461422002100F077FA054B204638
:101F2C006360054BE36040F201132381812323821C
:101F3C0010BD00BF160A0020170B002010B50E4C68
:101F4C0086B001A8FFF7E4FF2378BFF35B8FDB07B4
:101F5C000ED42046FEF79FF850B1012101AA074884
:101F6C00FFF784FF2046FEF79BF8054800F025FAA2
:101F7C00024806B010BD00BF680800208008002091
:101F8C00771E0A08002240681146FFF797B8F0B593
:101F9C00154689B011220E460446002103A800F014
:101FAC0034FA284600F081FA002781B2736828467B
:101FBC00009703AAFFF716F830B139462046FFF711
:101FCC00A3FC204609B0F0BD204603A9FFF78AFC0C
:101FDC00F7E7002240681146FFF790B800224068EE
:101FEC001146FFF79BB800224068FFF78FB800221C
:101FFC00406881F00101FFF779B8002340681A4668
:10200C001946FFF76BB8002340681A461946FFF7CC
:10201C005DB8002240681146FFF740B8002202214B
:10202C004068FFF743B8002340681A46FFF72EB804
:10203C000422024B5A60024A1A607047980B002027
:10204C004C280A08931E222B4FF000032DE9F04177
:10205C008CB00D4614468DF82C3026D9002829DA80
:10206C002E462D230A2406F8013B40424FF001086E
:10207C000DF12B072246014601A800F0A4F9029BA2
:10208C000198092BCCBF37223022134407F80139B1
:10209C0008F101080028EDD142463046791C00F0C9
:1020AC00A6F928460CB0BDE8F0810A2AD6D018B1A2
:1020BC002E46DBE70A24FAE730232E464FF00208BF
:1020CC008DF82B300DF12A07E6E70000014B186064
:1020DC00704700BF1400002008B5134B43B1FFF745
:1020EC00F3FE03681B699847002801DDAFF30080FD
:1020FC000E4B43B1FFF758FE03681B699847002845
:10210C0001DDAFF300800A4B0BB1AFF30080094B3C
:10211C0043B1FFF713FF03681B699847002801DDE3
:10212C00AFF3008008BD00BF0000000000000000FD
:10213C00000000000000000008B5FFF7CDFFFEF71F
:10214C0045FE014B186008BDB80B00200548064A37
:10215C0008B5121A054900F04AF9054B054A1A60F0
:10216C0008BD00BF0040024004400240B0280A08ED
:10217C00004002401E1C279A002307B51A466FF038
:10218C0077010093FEF760FF03B05DF804FB0000DD
:10219C0007B543880A2B08D0502B0BD1094B1B6871
:1021AC004BB103B05DF804EB1847FFF7E5FF03B044
:1021BC005DF804FB00231A466FF077010093FEF7DD
:1021CC0043FFF4E7A40B0020002110B51148FEF7E3
:1021DC00E5FF114B1A68114B9A420CBF01220022E9
:1021EC000F4B1A7001D0FFF7B1FFFEF7E7FD044665
:1021FC0000F014F90B4B13B12046AFF30080002113
:10220C000848FEF73BFFBDE8104000210648FEF7EA
:10221C0011BF00BFD9200A08004002401E1C279A9B
:10222C00A00B0020000000009D210A08024B9868BA
:10223C0008B1FEF7BBBD7047AC0B0020172870B57A
:10224C00044601D9002070BDA0F10D03022B0BD95F
:10225C00012824D800F078F80021007CFEF71EFE3F
:10226C0080F00100C0B2EEE7124E3178BFF35B8F05
:10227C0011F001050DD13046FDF70DFF48B129468F
:10228C000D48FFF741FC3046FDF70AFF0B4800F004
:10229C0094F8094B1878FEF725FE0028D2D1123C91
:1022AC00012C05D8FFF780FD007CFEF753FED7E725
:1022BC000120C8E7A80B0020AC0B002039220A082B
:1022CC00172838B504460D460AD8FF2908D0FFF761
:1022DC00B5FF28B129462046BDE83840FEF77EBD43
:1022EC0038BD38B504460D46FEF780FDFF2810D0EA
:1022FC00062804D84D2323FA00F0C30709D420463E
:10230C00FFF79CFF28B129462046BDE83840FEF770
:10231C0075BD38BD70470000002370B52025438083
:10232C001423084E04460380314685600561284617
:10233C0000F03EF831466060284600F039F8E06065
:10234C00204670BD80280A0830B50E4D87B029781C
:10235C00BFF35B8F11F0010411D12846FDF79BFEF2
:10236C0068B101A8FFF7D8FF214601AA0648FFF77C
:10237C0033FA2846FDF794FE044800F01EF8024894
:10238C0007B030BDBC0B0020C00B002021230A0875
:10239C00002307B51A46194600930348FFF7CAFAFB
:1023AC0003B05DF804FB00BFD40B0020FDF771BE39
:1023BC00FDF76DBE08B5FEF7E1FE002301461A4697
:1023CC00184600F07BB810B591FBF2F4002902FB23
:1023DC00141306DB002B01DA01349B1AC0E900430D
:1023EC0010BD002BC4BF04F1FF349B18F6E70A4460
:1023FC00914200F1FF3300D1704710B511F8014B39
:10240C00914203F8014FF9D110BD034602449342A7
:10241C0000D1704703F8011BF9E7000038B50D4BEC
:10242C0004461D68AB6B7BB91820FEF78FFE0A4A79
:10243C000A4BA863C0E90023094B012283600B23DC
:10244C0083810023C0E904230022AB6B1C615A6119
:10245C0038BD00BF140000200E33CDAB34126DE636
:10246C00ECDE0500034611F8012B03F8012B002AC2
:10247C00F9D17047024B0146186800F003B800BF51
:10248C001400002070B5044608460D4600F00DF807
:10249C00461C31462046FEF779FE044618B13246FA
:1024AC002946FFF7A4FF204670BD034613F8012B05
:1024BC00002AFBD1181A0138704700002DE9F843A7
:1024CC00DFF8BC800646D8F800001F460D46914642
:1024DC0000F058F8264B1C6834B9264C1C60264B6F
:1024EC0013B11B68C4F8883063681F2B07DDD8F85C
:1024FC00000000F049F84FF0FF30BDE8F8835EB300
:10250C00D4F8880088B91D4B23B9D8F8000000F026
:10251C003AF8F0E74FF48470FEF718FE0028F4D078
:10252C000023C0E94033C4F8880001226368022EFE
:10253C0040F8239002FA03F200EB8301D0F800314B
:10254C0043EA0203C0F80031C1F8807002BFD0F832
:10255C0004311A43C0F804216368D8F800005A1CEF
:10256C000233626044F8235000F00EF80020C4E7F8
:10257C00780C0020EC0B00200000000059110A0818
:10258C007800002070477047704700001D000A0853
:10259C005D000A0885000A0889000A08000000008E
:1025AC004D4158333031303520776173206E6F7464
:1025BC0020666F756E642E20506C656173652063A8
:1025CC006865636B20776972696E672F706F7765CA
:1025DC00722E004174746163682073656E736F7240
:1025EC0020746F2066696E67657220776974682045
:1025FC007275626265722062616E6420746F204233
:10260C006567696E2100204E6F2066696E67657282
:10261C003F0046696E676572204465746563746536
:10262C0064202D2D20496E697469616C697A696E1C
:10263C0067002E2E2E0048523D20002042504D00A7
:10264C002C2053504F323D20002500686561727478
:10265C00526174653A002C200073706F323A00643A
:10266C00617461456E747279005F5F5F6060606178
:10267C00616161616262626262636363636363632B
:10268C0063646464646464646464646464646464FF
:10269C0064646464646363636363636363626262FC
:1026AC0062626261616161606060605F5F5F5E5E1B
:1026BC005E5D5D5D5C5C5C5B5B5A5A595959585860
:1026CC005757565655555454535252515150504FCA
:1026DC004E4E4D4C4C4B4A4A49484847464545445A
:1026EC0043424241403F3E3E3D3C3B3A393838370D
:1026FC00363534333231302F2E2D2C2B2A292827E6
:10270C002625242322211F1E1D1C1B1A19171615E2
:10271C00141311100F0E0C0B0A0907060503020106
:10272C00000000000000000000000000E7110A0893
:10273C00ED110A083D120A08FB110A08E9110A08F2
:10274C0000000000000000008D170A08D7170A08C7
:10275C00AF170A088F170A08B7170A08BF170A0815
:10276C00C7170A08CF170A08000000000000000075
:10277C00A1180A0891180A0893180A0861707000C9
:10278C00000000000000000069190A0873190A080B
:10279C007D190A0887190A0891190A089D190A084F
:1027AC00A9190A08B1190A08B9190A08C5190A0899
:1027BC00CD190A08D7190A08E1190A0825592D2537
:1027CC006D2D25645425483A254D3A2553257A001C
:1027DC0061736374696D6500000000000000000007
:1027EC00111D0A087B1D0A08571D0A08451A0A08FC
:1027FC00271D0A08431D0A08351D0A08511D0A0821
:10280C00131D0A08191D0A08000000000000000032
:10281C00031E0A08691E0A08411E0A08451A0A08FE
:10282C00331E0A08051E0A08151E0A08631E0A082C
:10283C00251E0A08FD1D0A0800000000000000000B
:10284C0033200A0829200A081F200A08911F0A08A9
:10285C0013200A0807200A08A9190A08B1190A083E
:10286C00FB1F0A08F31F0A08E91F0A08DF1F0A08E2
:10287C009B1F0A0800000000A9040A0859190A083D
:10288C00311A0A08091B0A08D91C0A08FD1C0A0877
:10289C003D200A089D230A080000000000000000EB
:0428AC000000000028
:0428B0000000000024
:1028B4000200000006000000050000000A000000FD
:1028C400DC270A08180000200000000000000000B7
:1028D40000000000000000000000000000000000F4
:1028E40000000000000000000000000000000000E4
:1028F40000000000000000000000000000000000D4
:1029040000000000000000000000000000000000C3
:1029140000000000000000000000000000000000B3
:0C29240000000000000000007D0C0020FE
:10293000FFFFFFFF00000102030405060708090A64
:102940000B0C0D0E0F101112131415161718191A5F
:082950001B1C1D1E1F202800A6
:042958007856341267
:04000005080A001CC9
:00000001FF
